{
  "contractName": "ERC721Metadata",
  "abi": [
    {
      "constant": true,
      "inputs": [
        {
          "name": "_tokenId",
          "type": "uint256"
        },
        {
          "name": "",
          "type": "string"
        }
      ],
      "name": "getMetadata",
      "outputs": [
        {
          "name": "buffer",
          "type": "bytes32[4]"
        },
        {
          "name": "count",
          "type": "uint256"
        }
      ],
      "payable": false,
      "stateMutability": "view",
      "type": "function"
    }
  ],
  "bytecode": "0x608060405234801561001057600080fd5b50610365806100206000396000f300608060405260043610610041576000357c0100000000000000000000000000000000000000000000000000000000900463ffffffff168063cb4799f214610046575b600080fd5b34801561005257600080fd5b506100b760048036038101908080359060200190929190803590602001908201803590602001908080601f01602080910402602001604051908101604052809392919081815260200183838082843782019150505050505091929192905050506100fc565b6040518083600460200280838360005b838110156100e25780820151818401526020810190506100c7565b505050509050018281526020019250505060405180910390f35b610104610316565b6000600184141561015b577f48656c6c6f20576f726c6421203a44000000000000000000000000000000000082600060048110151561013f57fe5b60200201906000191690816000191681525050600f905061030f565b60028414156101f3577f4920776f756c6420646566696e6974656c792063686f6f73652061206d65646982600060048110151561019457fe5b602002019060001916908160001916815250507f756d206c656e67746820737472696e672e0000000000000000000000000000008260016004811015156101d757fe5b602002019060001916908160001916815250506031905061030e565b600384141561030d577f4c6f72656d20697073756d20646f6c6f722073697420616d65742c206d69206582600060048110151561022c57fe5b602002019060001916908160001916815250507f737420616363756d73616e2064617069627573206175677565206c6f72656d2c82600160048110151561026f57fe5b602002019060001916908160001916815250507f2074726973746971756520766573746962756c756d2069642c206c696265726f8260026004811015156102b257fe5b602002019060001916908160001916815250507f207375736369706974207661726975732073617069656e20616c697175616d2e8260036004811015156102f557fe5b60200201906000191690816000191681525050608090505b5b5b9250929050565b6080604051908101604052806004906020820280388339808201915050905050905600a165627a7a72305820616c723d3e4a76026a6a4adfda1426d55c7d58d9e602afdd71be7a74481577f90029",
  "source": "pragma solidity ^0.4.23;\r\n\r\ncontract ERC721 {\r\n    // Required methods\r\n    function totalSupply() public view returns (uint256 total);\r\n    function balanceOf(address _owner) public view returns (uint256 balance);\r\n    function ownerOf(uint256 _tokenId) external view returns (address owner);\r\n    function approve(address _to, uint256 _tokenId) external;\r\n    function transfer(address _to, uint256 _tokenId) external;\r\n    function transferFrom(address _from, address _to, uint256 _tokenId) external;\r\n\r\n    // Events\r\n    event Transfer(address from, address to, uint256 tokenId);\r\n    event Approval(address owner, address approved, uint256 tokenId);\r\n\r\n    // ERC-165 Compatibility (https://github.com/ethereum/EIPs/issues/165)\r\n    function supportsInterface(bytes4 _interfaceID) external view returns (bool);\r\n}\r\n\r\ncontract GunAccessControl {\r\n    // This facet controls access control for Blocked and Loaded. There are four roles managed here:\r\n    //\r\n    //     - The CEO: The CEO can reassign other roles and change the addresses of our dependent smart\r\n    //         contracts. It is also the only role that can unpause the smart contract. It is initially\r\n    //         set to the address that created the smart contract in the GunCore constructor.\r\n    //\r\n    //     - The CFO: The CFO can withdraw funds from GunCore and its auction contracts.\r\n    //\r\n    //     - The COO\r\n    //\r\n    // It should be noted that these roles are distinct without overlap in their access abilities, the\r\n    // abilities listed for each role above are exhaustive. In particular, while the CEO can assign any\r\n    // address to any role, the CEO address itself doesn't have the ability to act in those roles. This\r\n    // restriction is intentional so that we aren't tempted to use the CEO address frequently out of\r\n    // convenience. The less we use an address, the less likely it is that we somehow compromise the\r\n    // account.\r\n\r\n    event ContractUpgrade(address newContract);\r\n\r\n    // The addresses of the accounts (or contracts) that can execute actions within each roles.\r\n    address public ceoAddress;\r\n    address public cfoAddress;\r\n    address public cooAddress;\r\n\r\n    // Keeps track whether the contract is paused. When that is true, most actions are blocked\r\n    bool public paused = false;\r\n\r\n    /// Access modifier for CEO-only functionality\r\n    modifier onlyCEO() {\r\n        require(msg.sender == ceoAddress);\r\n        _;\r\n    }\r\n\r\n    /// Access modifier for CFO-only functionality\r\n    modifier onlyCFO() {\r\n        require(msg.sender == cfoAddress);\r\n        _;\r\n    }\r\n\r\n    /// Access modifier for COO-only functionality\r\n    modifier onlyCOO() {\r\n        require(msg.sender == cooAddress);\r\n        _;\r\n    }\r\n\r\n    modifier onlyCLevel() {\r\n        require(\r\n            msg.sender == cooAddress ||\r\n            msg.sender == ceoAddress ||\r\n            msg.sender == cfoAddress\r\n        );\r\n        _;\r\n    }\r\n\r\n    /// Assigns a new address to act as the CEO. Only available to the current CEO.\r\n    function setCEO(address _newCEO) external onlyCEO {\r\n        require(_newCEO != address(0));\r\n\r\n        ceoAddress = _newCEO;\r\n    }\r\n\r\n    /// Assigns a new address to act as the CFO. Only available to the current CEO.\r\n    function setCFO(address _newCFO) external onlyCEO {\r\n        require(_newCFO != address(0));\r\n\r\n        cfoAddress = _newCFO;\r\n    }\r\n\r\n    /// Assigns a new address to act as the COO. Only available to the current CEO.\r\n    function setCOO(address _newCOO) external onlyCEO {\r\n        require(_newCOO != address(0));\r\n\r\n        cooAddress = _newCOO;\r\n    }\r\n\r\n    /*** Pausable functionality adapted from OpenZeppelin ***/\r\n\r\n    /// Modifier to allow actions only when the contract IS NOT paused\r\n    modifier whenNotPaused() {\r\n        require(!paused);\r\n        _;\r\n    }\r\n\r\n    /// Modifier to allow actions only when the contract IS paused\r\n    modifier whenPaused {\r\n        require(paused);\r\n        _;\r\n    }\r\n\r\n    /// Called by any \"C-level\" role to pause the contract.\r\n    function pause() external onlyCLevel whenNotPaused {\r\n        paused = true;\r\n    }\r\n\r\n    ///  Unpauses the smart contract. Can only be called by the CEO, since\r\n    ///  one reason we may pause the contract is when CFO or COO accounts are\r\n    ///  compromised.\r\n    function unpause() public onlyCEO whenPaused {\r\n        paused = false;\r\n    }\r\n}\r\n\r\ncontract GunBase is GunAccessControl {\r\n    //Transfer event as defined in current draft of ERC721. Emitted every time\r\n    //a gun ownership is assigned.\r\n    event Transfer(address from, address to, uint256 tokenId);\r\n\r\n    //An approximation of currently how many seconds are in between block\r\n    uint256 public secondsPerBlock = 15;\r\n\r\n    //Main Gun Struct. \r\n    struct Gun {\r\n        string name;\r\n        string serial;\r\n        string manufacturer;\r\n        address owner;\r\n    }\r\n\r\n    //All guns in existence. The ID of each gun is an index to this array. Gun ID 0 is invalid.\r\n    Gun[] gunRecords;\r\n\r\n    //Mapping of gun's ID to address of the owner.\r\n    mapping(uint256 => address) public gunIndexToOwner;\r\n\r\n    //Mapping from owner address to count of tokens that address owns.\r\n    mapping(address => uint256) ownershipTokenCount;\r\n\r\n    //Mapping from GunIDs to an address that has been approved to call transferFrom().\r\n    //Each Gun can only have 1 approved address for transfer at any time.\r\n    mapping(uint256 => address) gunIndexToApproved;\r\n\r\n    //The address of the ClockAuction contract that handles sales of Guns. This also handles\r\n    //P2P sales.\r\n\r\n    //Assigns ownership of a specific Gun to a new address.\r\n    function _transfer(address _from, address _to, uint256 _tokenId) internal {\r\n        ownershipTokenCount[_to]++;\r\n        gunIndexToOwner[_tokenId] = _to;\r\n\r\n        if (_from != address(0)) {\r\n            ownershipTokenCount[_from]--;\r\n            delete gunIndexToApproved[_tokenId];\r\n        }\r\n\r\n        emit Transfer(_from, _to, _tokenId);\r\n    }\r\n\r\n    //Creates a new Gun Struct.\r\n    function createGun(string _name, string _serial, string _manufacturer, address _owner) returns (uint) {\r\n        Gun memory _newGun = Gun({\r\n            name: _name,\r\n            serial: _serial,\r\n            manufacturer: _manufacturer,\r\n            owner: _owner\r\n        });\r\n\r\n        uint256 newGunID = gunRecords.push(_newGun) - 1;\r\n        require(newGunID == uint256(uint32(newGunID)));\r\n\r\n        _transfer(0, _owner, newGunID);\r\n\r\n        return newGunID;\r\n    }\r\n\r\n    function setSecondsPerBlock(uint256 secs) external {\r\n        secondsPerBlock = secs;\r\n    }\r\n}\r\n\r\ncontract ERC721Metadata {\r\n    /// @dev Given a token Id, returns a byte array that is supposed to be converted into string.\r\n    function getMetadata(uint256 _tokenId, string) public view returns (bytes32[4] buffer, uint256 count) {\r\n        if (_tokenId == 1) {\r\n            buffer[0] = \"Hello World! :D\";\r\n            count = 15;\r\n        } else if (_tokenId == 2) {\r\n            buffer[0] = \"I would definitely choose a medi\";\r\n            buffer[1] = \"um length string.\";\r\n            count = 49;\r\n        } else if (_tokenId == 3) {\r\n            buffer[0] = \"Lorem ipsum dolor sit amet, mi e\";\r\n            buffer[1] = \"st accumsan dapibus augue lorem,\";\r\n            buffer[2] = \" tristique vestibulum id, libero\";\r\n            buffer[3] = \" suscipit varius sapien aliquam.\";\r\n            count = 128;\r\n        }\r\n    }\r\n}\r\n\r\ncontract GunOwnership is GunBase, ERC721 {\r\n    //Name and symbol of the non fungible token.\r\n    string public constant name = \"PISTL\";\r\n    string public constant symbol = \"P\";\r\n\r\n    // The contract that will return gun metadata\r\n    ERC721Metadata public erc721Metadata;\r\n\r\n    bytes4 constant InterfaceSignature_ERC165 = bytes4(keccak256(\"supportsInterface(bytes4)\"));\r\n\r\n    bytes4 constant InterfaceSignature_ERC721 =\r\n        bytes4(keccak256('name()')) ^\r\n        bytes4(keccak256('symbol()')) ^\r\n        bytes4(keccak256('totalSupply()')) ^\r\n        bytes4(keccak256('balanceOf(address)')) ^\r\n        bytes4(keccak256('ownerOf(uint256)')) ^\r\n        bytes4(keccak256('approve(address,uint256)')) ^\r\n        bytes4(keccak256('transfer(address,uint256)')) ^\r\n        bytes4(keccak256('transferFrom(address,address,uint256)')) ^\r\n        bytes4(keccak256('tokensOfOwner(address)')) ^\r\n        bytes4(keccak256('tokenMetadata(uint256,string)'));\r\n\r\n    /// @notice Introspection interface as per ERC-165 (https://github.com/ethereum/EIPs/issues/165).\r\n    ///  Returns true for any standardized interfaces implemented by this contract. We implement\r\n    ///  ERC-165 (obviously!) and ERC-721.\r\n    function supportsInterface(bytes4 _interfaceID) external view returns (bool)\r\n    {\r\n        return ((_interfaceID == InterfaceSignature_ERC165) || (_interfaceID == InterfaceSignature_ERC721));\r\n    }\r\n\r\n    /// @dev Set the address of the sibling contract that tracks metadata.\r\n    ///  CEO only.\r\n    function setMetadataAddress(address _contractAddress) public onlyCEO {\r\n        erc721Metadata = ERC721Metadata(_contractAddress);\r\n    }\r\n\r\n    //Checks if given address is current owner of a particular gun.\r\n    function _owns(address _claimer, uint256 _tokenID) internal view returns (bool) {\r\n        return gunIndexToOwner[_tokenID] == _claimer;\r\n    }\r\n\r\n    //Checks if a given address currently has transferApproval for a specified gun.\r\n    function _approvedFor(address _claimer, uint256 _tokenId) internal view returns (bool) {\r\n        return gunIndexToApproved[_tokenId] == _claimer;\r\n    }\r\n\r\n    //Allows address to be approved for transferFrom().\r\n    function _approve(uint256 _tokenId, address _approved) internal {\r\n        gunIndexToApproved[_tokenId] = _approved;\r\n    }\r\n\r\n    // Returns the number of Guns owned by a specific address.\r\n    function balanceOf(address _owner) public view returns (uint256 count) {\r\n        return ownershipTokenCount[_owner];\r\n    }\r\n\r\n    // Transfers a Gun to another address.\r\n    function transfer(address _to, uint256 _tokenId) external {\r\n        // Safety check to prevent against an unexpected 0x0 default.\r\n        require(_to != address(0), \"Unexpected address\");\r\n        // Disallow transfers to this contract to prevent accidental misuse.\r\n        // The contract should never own any guns.\r\n        require(_to != address(this), \"Invalid address\");\r\n\r\n        // You can only transfer your own gun.\r\n        require(_owns(msg.sender, _tokenId), \"Sender does not own this gun.\");\r\n\r\n        // Reassign ownership and emit Transfer event.\r\n        _transfer(msg.sender, _to, _tokenId);\r\n    }\r\n\r\n    // Grant another address the right to transfer ownership of a specific Gun.\r\n    function approve(address _to, uint256 _tokenId) external {\r\n        // Only an owner can grant transfer approval.\r\n        require(_owns(msg.sender, _tokenId));\r\n\r\n        // Register the approval (replacing any previous approval).\r\n        _approve(_tokenId, _to);\r\n\r\n        // Emit approval event.\r\n        emit Approval(msg.sender, _to, _tokenId);\r\n    }\r\n\r\n    // Transfer a Gun owned by another address, for which the calling address\r\n    //  has previously been granted transfer approval by the owner.\r\n    function transferFrom(address _from, address _to, uint256 _tokenId) external whenNotPaused {\r\n        // Safety check to prevent against an unexpected 0x0 default.\r\n        require(_to != address(0));\r\n        // Disallow transfers to this contract to prevent accidental misuse.\r\n        // The contract should never own any guns.\r\n        require(_to != address(this));\r\n        // Check for approval and valid ownership\r\n        require(_approvedFor(msg.sender, _tokenId));\r\n        require(_owns(_from, _tokenId));\r\n\r\n        // Reassign ownership and emits Transfer event.\r\n        _transfer(_from, _to, _tokenId);\r\n    }\r\n\r\n    // Returns the total number of Guns currently in existence.\r\n    function totalSupply() public view returns (uint) {\r\n        return gunRecords.length - 1;\r\n    }\r\n\r\n    // Returns the address currently assigned ownership of a given Gun.\r\n    function ownerOf(uint256 _tokenId) external view returns (address owner) {\r\n        owner = gunIndexToOwner[_tokenId];\r\n\r\n        require(owner != address(0));\r\n    }\r\n\r\n    // Returns a list of all Gun IDs assigned to an address.\r\n    function tokensOfOwner(address _owner) external view returns(uint256[] ownerTokens) {\r\n        uint256 tokenCount = balanceOf(_owner);\r\n\r\n        if (tokenCount == 0) {\r\n            // Return an empty array\r\n            return new uint256[](0);\r\n        } else {\r\n            uint256[] memory result = new uint256[](tokenCount);\r\n            uint256 totalGuns = totalSupply();\r\n            uint256 resultIndex = 0;\r\n\r\n            // We count on the fact that all guns have IDs starting at 1 and increasing\r\n            // sequentially up to the totalGun count.\r\n            uint256 gunId;\r\n\r\n            for (gunId = 1; gunId <= totalGuns; gunId++) {\r\n                if (gunIndexToOwner[gunId] == _owner) {\r\n                    result[resultIndex] = gunId;\r\n                    resultIndex++;\r\n                }\r\n            }\r\n\r\n            return result;\r\n        }\r\n    }\r\n}\r\n\r\n//Blocked and Loaded main contract.\r\ncontract GunCore is GunOwnership {\r\n\r\n    // This is the main Blocked and Loaded contract.\r\n    //\r\n    // The core contract is broked into multiple files using inheritence, one for each major\r\n    // facet of functionality of PISTL. The breakdown is as follows:\r\n    //\r\n    //      - GunBase: This is where we define the most fundamental code shared throughout the core\r\n    //             functionality. This includes our main data storage, constants and data types, plus\r\n    //             internal functions for managing these items.\r\n    //\r\n    //      - GunAccessControl: This contract manages the various addresses and constraints for operations\r\n    //             that can be executed only by specific roles. Namely CEO, CFO and COO.\r\n    //\r\n    //      - GunOwnership: This provides the methods required for basic non-fungible token\r\n    //             transactions, following the draft ERC-721 spec (https://github.com/ethereum/EIPs/issues/721).\r\n\r\n    //Set in case the core contract is broken and an upgrade is required\r\n    address public newContractAddress;\r\n\r\n    //Creates the main Blocked and Loaded smart contract instance.\r\n    constructor() public {\r\n        // Starts paused.\r\n        paused = true;\r\n\r\n        // the creator of the contract is the initial CEO\r\n        ceoAddress = msg.sender;\r\n\r\n        // the creator of the contract is also the initial COO\r\n        cooAddress = msg.sender;\r\n\r\n        // start with invalid gun to prevent ownership issues.\r\n        createGun(\"\", \"\", \"\", address(0));\r\n    }\r\n\r\n    ///  Used to mark the smart contract as upgraded, in case there is a serious\r\n    ///  breaking bug. This method does nothing but keep track of the new contract and\r\n    ///  emit a message indicating that the new address is set. It's up to clients of this\r\n    ///  contract to update to the new contract address in that case. (This contract will\r\n    ///  be paused indefinitely if such an upgrade takes place.)\r\n    function setNewAddress(address _v2Address) external onlyCEO whenPaused {\r\n        // See README.md for updgrade plan\r\n        newContractAddress = _v2Address;\r\n        emit ContractUpgrade(_v2Address);\r\n    }\r\n\r\n    /// Returns all the relevant information about a specific gun.\r\n    function getGun(uint256 _id)\r\n        external\r\n        view\r\n        returns (\r\n        string name,\r\n        string manufacturer,\r\n        string serialNumber\r\n    ) {\r\n        Gun storage _gun = gunRecords[_id];\r\n\r\n        // if this variable is 0 then it's not gestating\r\n        name = _gun.name;\r\n        manufacturer = _gun.manufacturer;\r\n        serialNumber = _gun.serial;\r\n    }\r\n\r\n    ///  Override unpause so it requires all external contract addresses\r\n    ///  to be set before contract can be unpaused. Also, we can't have\r\n    ///  newContractAddress set either, because then the contract was upgraded.\r\n    function unpause() public onlyCEO whenPaused {\r\n        require(newContractAddress == address(0));\r\n\r\n        // Actually unpause the contract.\r\n        super.unpause();\r\n    }\r\n}",
  "sourcePath": "C:\\Users\\Karina\\Desktop\\final\\contracts\\blocked.sol",
  "compiler": {
    "name": "solc",
    "version": "0.4.24+commit.e67f0147.Emscripten.clang"
  },
  "schemaVersion": "2.0.1",
  "updatedAt": "2018-11-30T00:50:57.601Z"
}