{
  "contractName": "GunCore",
  "abi": [
    {
      "constant": true,
      "inputs": [
        {
          "name": "_interfaceID",
          "type": "bytes4"
        }
      ],
      "name": "supportsInterface",
      "outputs": [
        {
          "name": "",
          "type": "bool"
        }
      ],
      "payable": false,
      "stateMutability": "view",
      "type": "function"
    },
    {
      "constant": true,
      "inputs": [],
      "name": "cfoAddress",
      "outputs": [
        {
          "name": "",
          "type": "address"
        }
      ],
      "payable": false,
      "stateMutability": "view",
      "type": "function"
    },
    {
      "constant": true,
      "inputs": [],
      "name": "name",
      "outputs": [
        {
          "name": "",
          "type": "string"
        }
      ],
      "payable": false,
      "stateMutability": "view",
      "type": "function"
    },
    {
      "constant": false,
      "inputs": [
        {
          "name": "_to",
          "type": "address"
        },
        {
          "name": "_tokenId",
          "type": "uint256"
        }
      ],
      "name": "approve",
      "outputs": [],
      "payable": false,
      "stateMutability": "nonpayable",
      "type": "function"
    },
    {
      "constant": true,
      "inputs": [],
      "name": "ceoAddress",
      "outputs": [
        {
          "name": "",
          "type": "address"
        }
      ],
      "payable": false,
      "stateMutability": "view",
      "type": "function"
    },
    {
      "constant": true,
      "inputs": [],
      "name": "totalSupply",
      "outputs": [
        {
          "name": "",
          "type": "uint256"
        }
      ],
      "payable": false,
      "stateMutability": "view",
      "type": "function"
    },
    {
      "constant": false,
      "inputs": [
        {
          "name": "_from",
          "type": "address"
        },
        {
          "name": "_to",
          "type": "address"
        },
        {
          "name": "_tokenId",
          "type": "uint256"
        }
      ],
      "name": "transferFrom",
      "outputs": [],
      "payable": false,
      "stateMutability": "nonpayable",
      "type": "function"
    },
    {
      "constant": false,
      "inputs": [
        {
          "name": "_newCEO",
          "type": "address"
        }
      ],
      "name": "setCEO",
      "outputs": [],
      "payable": false,
      "stateMutability": "nonpayable",
      "type": "function"
    },
    {
      "constant": false,
      "inputs": [
        {
          "name": "_newCOO",
          "type": "address"
        }
      ],
      "name": "setCOO",
      "outputs": [],
      "payable": false,
      "stateMutability": "nonpayable",
      "type": "function"
    },
    {
      "constant": false,
      "inputs": [
        {
          "name": "_newCFO",
          "type": "address"
        }
      ],
      "name": "setCFO",
      "outputs": [],
      "payable": false,
      "stateMutability": "nonpayable",
      "type": "function"
    },
    {
      "constant": false,
      "inputs": [
        {
          "name": "secs",
          "type": "uint256"
        }
      ],
      "name": "setSecondsPerBlock",
      "outputs": [],
      "payable": false,
      "stateMutability": "nonpayable",
      "type": "function"
    },
    {
      "constant": true,
      "inputs": [],
      "name": "paused",
      "outputs": [
        {
          "name": "",
          "type": "bool"
        }
      ],
      "payable": false,
      "stateMutability": "view",
      "type": "function"
    },
    {
      "constant": true,
      "inputs": [
        {
          "name": "_tokenId",
          "type": "uint256"
        }
      ],
      "name": "ownerOf",
      "outputs": [
        {
          "name": "owner",
          "type": "address"
        }
      ],
      "payable": false,
      "stateMutability": "view",
      "type": "function"
    },
    {
      "constant": true,
      "inputs": [],
      "name": "newContractAddress",
      "outputs": [
        {
          "name": "",
          "type": "address"
        }
      ],
      "payable": false,
      "stateMutability": "view",
      "type": "function"
    },
    {
      "constant": true,
      "inputs": [
        {
          "name": "_owner",
          "type": "address"
        }
      ],
      "name": "balanceOf",
      "outputs": [
        {
          "name": "count",
          "type": "uint256"
        }
      ],
      "payable": false,
      "stateMutability": "view",
      "type": "function"
    },
    {
      "constant": true,
      "inputs": [],
      "name": "secondsPerBlock",
      "outputs": [
        {
          "name": "",
          "type": "uint256"
        }
      ],
      "payable": false,
      "stateMutability": "view",
      "type": "function"
    },
    {
      "constant": false,
      "inputs": [],
      "name": "pause",
      "outputs": [],
      "payable": false,
      "stateMutability": "nonpayable",
      "type": "function"
    },
    {
      "constant": true,
      "inputs": [
        {
          "name": "_owner",
          "type": "address"
        }
      ],
      "name": "tokensOfOwner",
      "outputs": [
        {
          "name": "",
          "type": "uint256"
        },
        {
          "name": "",
          "type": "uint256"
        },
        {
          "name": "",
          "type": "uint256"
        }
      ],
      "payable": false,
      "stateMutability": "view",
      "type": "function"
    },
    {
      "constant": true,
      "inputs": [],
      "name": "symbol",
      "outputs": [
        {
          "name": "",
          "type": "string"
        }
      ],
      "payable": false,
      "stateMutability": "view",
      "type": "function"
    },
    {
      "constant": false,
      "inputs": [
        {
          "name": "_to",
          "type": "address"
        },
        {
          "name": "_tokenId",
          "type": "uint256"
        }
      ],
      "name": "transfer",
      "outputs": [],
      "payable": false,
      "stateMutability": "nonpayable",
      "type": "function"
    },
    {
      "constant": true,
      "inputs": [],
      "name": "cooAddress",
      "outputs": [
        {
          "name": "",
          "type": "address"
        }
      ],
      "payable": false,
      "stateMutability": "view",
      "type": "function"
    },
    {
      "constant": true,
      "inputs": [
        {
          "name": "",
          "type": "uint256"
        }
      ],
      "name": "gunIndexToOwner",
      "outputs": [
        {
          "name": "",
          "type": "address"
        }
      ],
      "payable": false,
      "stateMutability": "view",
      "type": "function"
    },
    {
      "constant": true,
      "inputs": [],
      "name": "erc721Metadata",
      "outputs": [
        {
          "name": "",
          "type": "address"
        }
      ],
      "payable": false,
      "stateMutability": "view",
      "type": "function"
    },
    {
      "constant": false,
      "inputs": [
        {
          "name": "_contractAddress",
          "type": "address"
        }
      ],
      "name": "setMetadataAddress",
      "outputs": [],
      "payable": false,
      "stateMutability": "nonpayable",
      "type": "function"
    },
    {
      "constant": false,
      "inputs": [
        {
          "name": "_name",
          "type": "string"
        },
        {
          "name": "_serial",
          "type": "string"
        },
        {
          "name": "_manufacturer",
          "type": "string"
        }
      ],
      "name": "createGun",
      "outputs": [
        {
          "name": "",
          "type": "uint256"
        }
      ],
      "payable": false,
      "stateMutability": "nonpayable",
      "type": "function"
    },
    {
      "inputs": [],
      "payable": false,
      "stateMutability": "nonpayable",
      "type": "constructor"
    },
    {
      "anonymous": false,
      "inputs": [
        {
          "indexed": false,
          "name": "from",
          "type": "address"
        },
        {
          "indexed": false,
          "name": "to",
          "type": "address"
        },
        {
          "indexed": false,
          "name": "tokenId",
          "type": "uint256"
        }
      ],
      "name": "Transfer",
      "type": "event"
    },
    {
      "anonymous": false,
      "inputs": [
        {
          "indexed": false,
          "name": "owner",
          "type": "address"
        },
        {
          "indexed": false,
          "name": "approved",
          "type": "address"
        },
        {
          "indexed": false,
          "name": "tokenId",
          "type": "uint256"
        }
      ],
      "name": "Approval",
      "type": "event"
    },
    {
      "anonymous": false,
      "inputs": [
        {
          "indexed": false,
          "name": "newContract",
          "type": "address"
        }
      ],
      "name": "ContractUpgrade",
      "type": "event"
    },
    {
      "constant": false,
      "inputs": [
        {
          "name": "_v2Address",
          "type": "address"
        }
      ],
      "name": "setNewAddress",
      "outputs": [],
      "payable": false,
      "stateMutability": "nonpayable",
      "type": "function"
    },
    {
      "constant": true,
      "inputs": [
        {
          "name": "_id",
          "type": "uint256"
        }
      ],
      "name": "getGun",
      "outputs": [
        {
          "name": "name",
          "type": "string"
        },
        {
          "name": "manufacturer",
          "type": "string"
        },
        {
          "name": "serialNumber",
          "type": "string"
        }
      ],
      "payable": false,
      "stateMutability": "view",
      "type": "function"
    },
    {
      "constant": true,
      "inputs": [],
      "name": "getGunRecords",
      "outputs": [
        {
          "components": [
            {
              "name": "name",
              "type": "string"
            },
            {
              "name": "serial",
              "type": "string"
            },
            {
              "name": "manufacturer",
              "type": "string"
            },
            {
              "name": "owner",
              "type": "address"
            }
          ],
          "name": "",
          "type": "tuple[]"
        }
      ],
      "payable": false,
      "stateMutability": "view",
      "type": "function"
    },
    {
      "constant": false,
      "inputs": [],
      "name": "unpause",
      "outputs": [],
      "payable": false,
      "stateMutability": "nonpayable",
      "type": "function"
    }
  ],
  "bytecode": "0x60806040526000600260146101000a81548160ff021916908315150217905550600f6003553480156200003157600080fd5b506001600260146101000a81548160ff021916908315150217905550336000806101000a81548173ffffffffffffffffffffffffffffffffffffffff021916908373ffffffffffffffffffffffffffffffffffffffff16021790555033600260006101000a81548173ffffffffffffffffffffffffffffffffffffffff021916908373ffffffffffffffffffffffffffffffffffffffff1602179055506200011a60206040519081016040528060008152506020604051908101604052806000815250602060405190810160405280600081525062000121640100000000026401000000009004565b5062000598565b60006200012d62000421565b60006080604051908101604052808781526020018681526020018581526020013373ffffffffffffffffffffffffffffffffffffffff1681525091506001600483908060018154018082558091505090600182039060005260206000209060040201600090919290919091506000820151816000019080519060200190620001b792919062000460565b506020820151816001019080519060200190620001d692919062000460565b506040820151816002019080519060200190620001f592919062000460565b5060608201518160030160006101000a81548173ffffffffffffffffffffffffffffffffffffffff021916908373ffffffffffffffffffffffffffffffffffffffff16021790555050500390508063ffffffff16811415156200025757600080fd5b620002746000338362000280640100000000026401000000009004565b80925050509392505050565b600660008373ffffffffffffffffffffffffffffffffffffffff1673ffffffffffffffffffffffffffffffffffffffff16815260200190815260200160002060008154809291906001019190505550816005600083815260200190815260200160002060006101000a81548173ffffffffffffffffffffffffffffffffffffffff021916908373ffffffffffffffffffffffffffffffffffffffff160217905550600073ffffffffffffffffffffffffffffffffffffffff168373ffffffffffffffffffffffffffffffffffffffff16141515620003df57600660008473ffffffffffffffffffffffffffffffffffffffff1673ffffffffffffffffffffffffffffffffffffffff16815260200190815260200160002060008154809291906001900391905055506007600082815260200190815260200160002060006101000a81549073ffffffffffffffffffffffffffffffffffffffff02191690555b7fddf252ad1be2c89b69c2b068fc378daa952ba7f163c4a11628f55a4df523b3ef838383604051620004149392919062000531565b60405180910390a1505050565b608060405190810160405280606081526020016060815260200160608152602001600073ffffffffffffffffffffffffffffffffffffffff1681525090565b828054600181600116156101000203166002900490600052602060002090601f016020900481019282601f10620004a357805160ff1916838001178555620004d4565b82800160010185558215620004d4579182015b82811115620004d3578251825591602001919060010190620004b6565b5b509050620004e39190620004e7565b5090565b6200050c91905b8082111562000508576000816000905550600101620004ee565b5090565b90565b6200051a816200056e565b82525050565b6200052b816200058e565b82525050565b60006060820190506200054860008301866200050f565b6200055760208301856200050f565b62000566604083018462000520565b949350505050565b600073ffffffffffffffffffffffffffffffffffffffff82169050919050565b6000819050919050565b6122c480620005a86000396000f300608060405260043610610175576000357c0100000000000000000000000000000000000000000000000000000000900463ffffffff16806301ffc9a71461017a5780630519ce79146101b757806306fdde03146101e2578063095ea7b31461020d5780630a0f81681461023657806318160ddd1461026157806323b872dd1461028c57806327d7874c146102b55780632ba73c15146102de5780633f4ba83a146103075780634e0a33791461031e5780635663896e146103475780635c975abb146103705780636352211e1461039b5780636af04a57146103d857806370a082311461040357806371587988146104405780637a7d4937146104695780638456cb59146104945780638462151c146104ab57806395d89b41146104ea578063a9059cbb14610515578063b047fb501461053e578063b443a8da14610569578063b6af60cb14610594578063bc4006f5146105d1578063e17b25af146105fc578063e2a3adf714610625578063e607bd9914610662575b600080fd5b34801561018657600080fd5b506101a1600480360361019c9190810190611c26565b6106a1565b6040516101ae9190611faf565b60405180910390f35b3480156101c357600080fd5b506101cc6109b2565b6040516101d99190611f3b565b60405180910390f35b3480156101ee57600080fd5b506101f76109d8565b6040516102049190611fe5565b60405180910390f35b34801561021957600080fd5b50610234600480360361022f9190810190611bea565b610a11565b005b34801561024257600080fd5b5061024b610a6f565b6040516102589190611f3b565b60405180910390f35b34801561026d57600080fd5b50610276610a94565b60405161028391906120b3565b60405180910390f35b34801561029857600080fd5b506102b360048036036102ae9190810190611b9b565b610aa4565b005b3480156102c157600080fd5b506102dc60048036036102d79190810190611b72565b610b71565b005b3480156102ea57600080fd5b5061030560048036036103009190810190611b72565b610c4b565b005b34801561031357600080fd5b5061031c610d26565b005b34801561032a57600080fd5b5061034560048036036103409190810190611b72565b610d8d565b005b34801561035357600080fd5b5061036e60048036036103699190810190611ce6565b610e68565b005b34801561037c57600080fd5b50610385610e72565b6040516103929190611faf565b60405180910390f35b3480156103a757600080fd5b506103c260048036036103bd9190810190611ce6565b610e85565b6040516103cf9190611f3b565b60405180910390f35b3480156103e457600080fd5b506103ed610efe565b6040516103fa9190611f3b565b60405180910390f35b34801561040f57600080fd5b5061042a60048036036104259190810190611b72565b610f24565b60405161043791906120b3565b60405180910390f35b34801561044c57600080fd5b5061046760048036036104629190810190611b72565b610f6d565b005b34801561047557600080fd5b5061047e610fe8565b60405161048b91906120b3565b60405180910390f35b3480156104a057600080fd5b506104a9610fee565b005b3480156104b757600080fd5b506104d260048036036104cd9190810190611b72565b61100b565b6040516104e1939291906120ce565b60405180910390f35b3480156104f657600080fd5b506104ff611185565b60405161050c9190611fe5565b60405180910390f35b34801561052157600080fd5b5061053c60048036036105379190810190611bea565b6111be565b005b34801561054a57600080fd5b506105536112fb565b6040516105609190611f3b565b60405180910390f35b34801561057557600080fd5b5061057e611321565b60405161058b9190611f8d565b60405180910390f35b3480156105a057600080fd5b506105bb60048036036105b69190810190611ce6565b611326565b6040516105c89190611f3b565b60405180910390f35b3480156105dd57600080fd5b506105e6611359565b6040516105f39190611fca565b60405180910390f35b34801561060857600080fd5b50610623600480360361061e9190810190611b72565b61137f565b005b34801561063157600080fd5b5061064c60048036036106479190810190611c4f565b6113c3565b60405161065991906120b3565b60405180910390f35b34801561066e57600080fd5b5061068960048036036106849190810190611ce6565b611508565b60405161069893929190612007565b60405180910390f35b600060405180807f737570706f727473496e74657266616365286279746573342900000000000000815250601901905060405180910390207bffffffffffffffffffffffffffffffffffffffffffffffffffffffff1916827bffffffffffffffffffffffffffffffffffffffffffffffffffffffff191614806109ab575060405180807f746f6b656e4d657461646174612875696e743235362c737472696e6729000000815250601d019050604051809103902060405180807f746f6b656e734f664f776e6572286164647265737329000000000000000000008152506016019050604051809103902060405180807f7472616e7366657246726f6d28616464726573732c616464726573732c75696e81526020017f74323536290000000000000000000000000000000000000000000000000000008152506025019050604051809103902060405180807f7472616e7366657228616464726573732c75696e7432353629000000000000008152506019019050604051809103902060405180807f617070726f766528616464726573732c75696e743235362900000000000000008152506018019050604051809103902060405180807f6f776e65724f662875696e7432353629000000000000000000000000000000008152506010019050604051809103902060405180807f62616c616e63654f6628616464726573732900000000000000000000000000008152506012019050604051809103902060405180807f746f74616c537570706c79282900000000000000000000000000000000000000815250600d019050604051809103902060405180807f73796d626f6c28290000000000000000000000000000000000000000000000008152506008019050604051809103902060405180807f6e616d6528290000000000000000000000000000000000000000000000000000815250600601905060405180910390201818181818181818187bffffffffffffffffffffffffffffffffffffffffffffffffffffffff1916827bffffffffffffffffffffffffffffffffffffffffffffffffffffffff1916145b9050919050565b600160009054906101000a900473ffffffffffffffffffffffffffffffffffffffff1681565b6040805190810160405280600581526020017f504953544c00000000000000000000000000000000000000000000000000000081525081565b610a1b3382611713565b1515610a2657600080fd5b610a30818361177f565b7f8c5be1e5ebec7d5bd14f71427d1e84f3dd0314c0f7b2291e5b200ac8c7c3b925338383604051610a6393929190611f56565b60405180910390a15050565b6000809054906101000a900473ffffffffffffffffffffffffffffffffffffffff1681565b6000600160048054905003905090565b600260149054906101000a900460ff16151515610ac057600080fd5b600073ffffffffffffffffffffffffffffffffffffffff168273ffffffffffffffffffffffffffffffffffffffff1614151515610afc57600080fd5b3073ffffffffffffffffffffffffffffffffffffffff168273ffffffffffffffffffffffffffffffffffffffff1614151515610b3757600080fd5b610b4133826117d5565b1515610b4c57600080fd5b610b568382611713565b1515610b6157600080fd5b610b6c838383611841565b505050565b6000809054906101000a900473ffffffffffffffffffffffffffffffffffffffff1673ffffffffffffffffffffffffffffffffffffffff163373ffffffffffffffffffffffffffffffffffffffff16141515610bcc57600080fd5b600073ffffffffffffffffffffffffffffffffffffffff168173ffffffffffffffffffffffffffffffffffffffff1614151515610c0857600080fd5b806000806101000a81548173ffffffffffffffffffffffffffffffffffffffff021916908373ffffffffffffffffffffffffffffffffffffffff16021790555050565b6000809054906101000a900473ffffffffffffffffffffffffffffffffffffffff1673ffffffffffffffffffffffffffffffffffffffff163373ffffffffffffffffffffffffffffffffffffffff16141515610ca657600080fd5b600073ffffffffffffffffffffffffffffffffffffffff168173ffffffffffffffffffffffffffffffffffffffff1614151515610ce257600080fd5b80600260006101000a81548173ffffffffffffffffffffffffffffffffffffffff021916908373ffffffffffffffffffffffffffffffffffffffff16021790555050565b600073ffffffffffffffffffffffffffffffffffffffff16600960009054906101000a900473ffffffffffffffffffffffffffffffffffffffff1673ffffffffffffffffffffffffffffffffffffffff16141515610d8357600080fd5b610d8b6119df565b565b6000809054906101000a900473ffffffffffffffffffffffffffffffffffffffff1673ffffffffffffffffffffffffffffffffffffffff163373ffffffffffffffffffffffffffffffffffffffff16141515610de857600080fd5b600073ffffffffffffffffffffffffffffffffffffffff168173ffffffffffffffffffffffffffffffffffffffff1614151515610e2457600080fd5b80600160006101000a81548173ffffffffffffffffffffffffffffffffffffffff021916908373ffffffffffffffffffffffffffffffffffffffff16021790555050565b8060038190555050565b600260149054906101000a900460ff1681565b60006005600083815260200190815260200160002060009054906101000a900473ffffffffffffffffffffffffffffffffffffffff169050600073ffffffffffffffffffffffffffffffffffffffff168173ffffffffffffffffffffffffffffffffffffffff1614151515610ef957600080fd5b919050565b600960009054906101000a900473ffffffffffffffffffffffffffffffffffffffff1681565b6000600660008373ffffffffffffffffffffffffffffffffffffffff1673ffffffffffffffffffffffffffffffffffffffff168152602001908152602001600020549050919050565b80600960006101000a81548173ffffffffffffffffffffffffffffffffffffffff021916908373ffffffffffffffffffffffffffffffffffffffff1602179055507f450db8da6efbe9c22f2347f7c2021231df1fc58d3ae9a2fa75d39fa44619930581604051610fdd9190611f3b565b60405180910390a150565b60035481565b6001600260146101000a81548160ff021916908315150217905550565b6000806000806060600080600060039450600085141561103e576000806000829250819150809050975097509750611179565b600360405190808252806020026020018201604052801561106e5781602001602082028038833980820191505090505b509350611079610a94565b925060009150600190505b8281111515611127578873ffffffffffffffffffffffffffffffffffffffff166005600083815260200190815260200160002060009054906101000a900473ffffffffffffffffffffffffffffffffffffffff1673ffffffffffffffffffffffffffffffffffffffff16141561111a5780848381518110151561110357fe5b906020019060200201818152505081806001019250505b8080600101915050611084565b83600081518110151561113657fe5b9060200190602002015184600181518110151561114f57fe5b9060200190602002015185600281518110151561116857fe5b906020019060200201519750975097505b50505050509193909250565b6040805190810160405280600181526020017f500000000000000000000000000000000000000000000000000000000000000081525081565b600073ffffffffffffffffffffffffffffffffffffffff168273ffffffffffffffffffffffffffffffffffffffff1614151515611230576040517f08c379a000000000000000000000000000000000000000000000000000000000815260040161122790612073565b60405180910390fd5b3073ffffffffffffffffffffffffffffffffffffffff168273ffffffffffffffffffffffffffffffffffffffff16141515156112a1576040517f08c379a000000000000000000000000000000000000000000000000000000000815260040161129890612053565b60405180910390fd5b6112ab3382611713565b15156112ec576040517f08c379a00000000000000000000000000000000000000000000000000000000081526004016112e390612093565b60405180910390fd5b6112f7338383611841565b5050565b600260009054906101000a900473ffffffffffffffffffffffffffffffffffffffff1681565b606090565b60056020528060005260406000206000915054906101000a900473ffffffffffffffffffffffffffffffffffffffff1681565b600860009054906101000a900473ffffffffffffffffffffffffffffffffffffffff1681565b80600860006101000a81548173ffffffffffffffffffffffffffffffffffffffff021916908373ffffffffffffffffffffffffffffffffffffffff16021790555050565b60006113cd6119fc565b60006080604051908101604052808781526020018681526020018581526020013373ffffffffffffffffffffffffffffffffffffffff1681525091506001600483908060018154018082558091505090600182039060005260206000209060040201600090919290919091506000820151816000019080519060200190611455929190611a3b565b506020820151816001019080519060200190611472929190611a3b565b50604082015181600201908051906020019061148f929190611a3b565b5060608201518160030160006101000a81548173ffffffffffffffffffffffffffffffffffffffff021916908373ffffffffffffffffffffffffffffffffffffffff16021790555050500390508063ffffffff16811415156114f057600080fd5b6114fc60003383611841565b80925050509392505050565b6060806060600060048581548110151561151e57fe5b90600052602060002090600402019050806000018054600181600116156101000203166002900480601f0160208091040260200160405190810160405280929190818152602001828054600181600116156101000203166002900480156115c65780601f1061159b576101008083540402835291602001916115c6565b820191906000526020600020905b8154815290600101906020018083116115a957829003601f168201915b50505050509350806002018054600181600116156101000203166002900480601f0160208091040260200160405190810160405280929190818152602001828054600181600116156101000203166002900480156116655780601f1061163a57610100808354040283529160200191611665565b820191906000526020600020905b81548152906001019060200180831161164857829003601f168201915b50505050509250806001018054600181600116156101000203166002900480601f0160208091040260200160405190810160405280929190818152602001828054600181600116156101000203166002900480156117045780601f106116d957610100808354040283529160200191611704565b820191906000526020600020905b8154815290600101906020018083116116e757829003601f168201915b50505050509150509193909250565b60008273ffffffffffffffffffffffffffffffffffffffff166005600084815260200190815260200160002060009054906101000a900473ffffffffffffffffffffffffffffffffffffffff1673ffffffffffffffffffffffffffffffffffffffff1614905092915050565b806007600084815260200190815260200160002060006101000a81548173ffffffffffffffffffffffffffffffffffffffff021916908373ffffffffffffffffffffffffffffffffffffffff1602179055505050565b60008273ffffffffffffffffffffffffffffffffffffffff166007600084815260200190815260200160002060009054906101000a900473ffffffffffffffffffffffffffffffffffffffff1673ffffffffffffffffffffffffffffffffffffffff1614905092915050565b600660008373ffffffffffffffffffffffffffffffffffffffff1673ffffffffffffffffffffffffffffffffffffffff16815260200190815260200160002060008154809291906001019190505550816005600083815260200190815260200160002060006101000a81548173ffffffffffffffffffffffffffffffffffffffff021916908373ffffffffffffffffffffffffffffffffffffffff160217905550600073ffffffffffffffffffffffffffffffffffffffff168373ffffffffffffffffffffffffffffffffffffffff1614151561199f57600660008473ffffffffffffffffffffffffffffffffffffffff1673ffffffffffffffffffffffffffffffffffffffff16815260200190815260200160002060008154809291906001900391905055506007600082815260200190815260200160002060006101000a81549073ffffffffffffffffffffffffffffffffffffffff02191690555b7fddf252ad1be2c89b69c2b068fc378daa952ba7f163c4a11628f55a4df523b3ef8383836040516119d293929190611f56565b60405180910390a1505050565b6000600260146101000a81548160ff021916908315150217905550565b608060405190810160405280606081526020016060815260200160608152602001600073ffffffffffffffffffffffffffffffffffffffff1681525090565b828054600181600116156101000203166002900490600052602060002090601f016020900481019282601f10611a7c57805160ff1916838001178555611aaa565b82800160010185558215611aaa579182015b82811115611aa9578251825591602001919060010190611a8e565b5b509050611ab79190611abb565b5090565b611add91905b80821115611ad9576000816000905550600101611ac1565b5090565b90565b6000611aec82356121cf565b905092915050565b6000611b0082356121ef565b905092915050565b600082601f8301121515611b1b57600080fd5b8135611b2e611b2982612132565b612105565b91508082526020830160208301858383011115611b4a57600080fd5b611b55838284612237565b50505092915050565b6000611b6a823561221b565b905092915050565b600060208284031215611b8457600080fd5b6000611b9284828501611ae0565b91505092915050565b600080600060608486031215611bb057600080fd5b6000611bbe86828701611ae0565b9350506020611bcf86828701611ae0565b9250506040611be086828701611b5e565b9150509250925092565b60008060408385031215611bfd57600080fd5b6000611c0b85828601611ae0565b9250506020611c1c85828601611b5e565b9150509250929050565b600060208284031215611c3857600080fd5b6000611c4684828501611af4565b91505092915050565b600080600060608486031215611c6457600080fd5b600084013567ffffffffffffffff811115611c7e57600080fd5b611c8a86828701611b08565b935050602084013567ffffffffffffffff811115611ca757600080fd5b611cb386828701611b08565b925050604084013567ffffffffffffffff811115611cd057600080fd5b611cdc86828701611b08565b9150509250925092565b600060208284031215611cf857600080fd5b6000611d0684828501611b5e565b91505092915050565b611d1881612199565b82525050565b6000611d298261216b565b80845260208401935083602082028501611d428561215e565b60005b84811015611d7b578383038852611d5d838351611ebb565b9250611d688261218c565b9150602088019750600181019050611d45565b508196508694505050505092915050565b611d95816121b9565b82525050565b611da481612225565b82525050565b6000611db582612181565b808452611dc9816020860160208601612246565b611dd281612279565b602085010191505092915050565b6000611deb82612176565b808452611dff816020860160208601612246565b611e0881612279565b602085010191505092915050565b6000600f82527f496e76616c6964206164647265737300000000000000000000000000000000006020830152604082019050919050565b6000601282527f556e6578706563746564206164647265737300000000000000000000000000006020830152604082019050919050565b6000601d82527f53656e64657220646f6573206e6f74206f776e20746869732067756e2e0000006020830152604082019050919050565b60006080830160008301518482036000860152611ed88282611de0565b91505060208301518482036020860152611ef28282611de0565b91505060408301518482036040860152611f0c8282611de0565b9150506060830151611f216060860182611d0f565b508091505092915050565b611f35816121c5565b82525050565b6000602082019050611f506000830184611d0f565b92915050565b6000606082019050611f6b6000830186611d0f565b611f786020830185611d0f565b611f856040830184611f2c565b949350505050565b60006020820190508181036000830152611fa78184611d1e565b905092915050565b6000602082019050611fc46000830184611d8c565b92915050565b6000602082019050611fdf6000830184611d9b565b92915050565b60006020820190508181036000830152611fff8184611de0565b905092915050565b600060608201905081810360008301526120218186611daa565b905081810360208301526120358185611daa565b905081810360408301526120498184611daa565b9050949350505050565b6000602082019050818103600083015261206c81611e16565b9050919050565b6000602082019050818103600083015261208c81611e4d565b9050919050565b600060208201905081810360008301526120ac81611e84565b9050919050565b60006020820190506120c86000830184611f2c565b92915050565b60006060820190506120e36000830186611f2c565b6120f06020830185611f2c565b6120fd6040830184611f2c565b949350505050565b6000604051905081810181811067ffffffffffffffff8211171561212857600080fd5b8060405250919050565b600067ffffffffffffffff82111561214957600080fd5b601f19601f8301169050602081019050919050565b6000602082019050919050565b600081519050919050565b600081519050919050565b600081519050919050565b6000602082019050919050565b600073ffffffffffffffffffffffffffffffffffffffff82169050919050565b60008115159050919050565b6000819050919050565b600073ffffffffffffffffffffffffffffffffffffffff82169050919050565b60007fffffffff0000000000000000000000000000000000000000000000000000000082169050919050565b6000819050919050565b600061223082612199565b9050919050565b82818337600083830152505050565b60005b83811015612264578082015181840152602081019050612249565b83811115612273576000848401525b50505050565b6000601f19601f83011690509190505600a265627a7a72305820c219e190c639befa237fa888d073318d1b53e88e441df10c8b0aa731ba42ffbf6c6578706572696d656e74616cf50037",
  "source": "pragma solidity ^0.4.23;\npragma experimental ABIEncoderV2;\n\ncontract ERC721 {\n    // Required methods\n    function totalSupply() public view returns (uint256 total);\n    function balanceOf(address _owner) public view returns (uint256 balance);\n    function ownerOf(uint256 _tokenId) external view returns (address owner);\n    function approve(address _to, uint256 _tokenId) external;\n    function transfer(address _to, uint256 _tokenId) external;\n    function transferFrom(address _from, address _to, uint256 _tokenId) external;\n\n    // Events\n    event Transfer(address from, address to, uint256 tokenId);\n    event Approval(address owner, address approved, uint256 tokenId);\n\n    // ERC-165 Compatibility (https://github.com/ethereum/EIPs/issues/165)\n    function supportsInterface(bytes4 _interfaceID) external view returns (bool);\n}\n\ncontract GunAccessControl {\n    // This facet controls access control for Blocked and Loaded. There are four roles managed here:\n    //\n    //     - The CEO: The CEO can reassign other roles and change the addresses of our dependent smart\n    //         contracts. It is also the only role that can unpause the smart contract. It is initially\n    //         set to the address that created the smart contract in the GunCore constructor.\n    //\n    //     - The CFO: The CFO can withdraw funds from GunCore and its auction contracts.\n    //\n    //     - The COO\n    //\n    // It should be noted that these roles are distinct without overlap in their access abilities, the\n    // abilities listed for each role above are exhaustive. In particular, while the CEO can assign any\n    // address to any role, the CEO address itself doesn't have the ability to act in those roles. This\n    // restriction is intentional so that we aren't tempted to use the CEO address frequently out of\n    // convenience. The less we use an address, the less likely it is that we somehow compromise the\n    // account.\n\n    event ContractUpgrade(address newContract);\n\n    // The addresses of the accounts (or contracts) that can execute actions within each roles.\n    address public ceoAddress;\n    address public cfoAddress;\n    address public cooAddress;\n\n    // Keeps track whether the contract is paused. When that is true, most actions are blocked\n    bool public paused = false;\n\n    /// Access modifier for CEO-only functionality\n    modifier onlyCEO() {\n        require(msg.sender == ceoAddress);\n        _;\n    }\n\n    /// Access modifier for CFO-only functionality\n    modifier onlyCFO() {\n        require(msg.sender == cfoAddress);\n        _;\n    }\n\n    /// Access modifier for COO-only functionality\n    modifier onlyCOO() {\n        require(msg.sender == cooAddress);\n        _;\n    }\n\n    modifier onlyCLevel() {\n        require(\n            msg.sender == cooAddress ||\n            msg.sender == ceoAddress ||\n            msg.sender == cfoAddress\n        );\n        _;\n    }\n\n    /// Assigns a new address to act as the CEO. Only available to the current CEO.\n    function setCEO(address _newCEO) external onlyCEO {\n        require(_newCEO != address(0));\n\n        ceoAddress = _newCEO;\n    }\n\n    /// Assigns a new address to act as the CFO. Only available to the current CEO.\n    function setCFO(address _newCFO) external onlyCEO {\n        require(_newCFO != address(0));\n\n        cfoAddress = _newCFO;\n    }\n\n    /// Assigns a new address to act as the COO. Only available to the current CEO.\n    function setCOO(address _newCOO) external onlyCEO {\n        require(_newCOO != address(0));\n\n        cooAddress = _newCOO;\n    }\n\n    /*** Pausable functionality adapted from OpenZeppelin ***/\n\n    /// Modifier to allow actions only when the contract IS NOT paused\n    modifier whenNotPaused() {\n        require(!paused);\n        _;\n    }\n\n    /// Modifier to allow actions only when the contract IS paused\n    modifier whenPaused {\n        require(paused);\n        _;\n    }\n\n    /// Called by any \"C-level\" role to pause the contract.\n    function pause() external {\n        paused = true;\n    }\n\n    ///  Unpauses the smart contract. Can only be called by the CEO, since\n    ///  one reason we may pause the contract is when CFO or COO accounts are\n    ///  compromised.\n    function unpause() public {\n        paused = false;\n    }\n}\n\ncontract GunBase is GunAccessControl {\n    //Transfer event as defined in current draft of ERC721. Emitted every time\n    //a gun ownership is assigned.\n    event Transfer(address from, address to, uint256 tokenId);\n\n    //An approximation of currently how many seconds are in between block\n    uint256 public secondsPerBlock = 15;\n\n    //Main Gun Struct. \n    struct Gun {\n        string name;\n        string serial;\n        string manufacturer;\n        address owner;\n    }\n\n    //All guns in existence. The ID of each gun is an index to this array. Gun ID 0 is invalid.\n    Gun[] gunRecords;\n\n    //Mapping of gun's ID to address of the owner.\n    mapping(uint256 => address) public gunIndexToOwner;\n\n    //Mapping from owner address to count of tokens that address owns.\n    mapping(address => uint256) ownershipTokenCount;\n\n    //Mapping from GunIDs to an address that has been approved to call transferFrom().\n    //Each Gun can only have 1 approved address for transfer at any time.\n    mapping(uint256 => address) gunIndexToApproved;\n\n    //The address of the ClockAuction contract that handles sales of Guns. This also handles\n    //P2P sales.\n\n    //Assigns ownership of a specific Gun to a new address.\n    function _transfer(address _from, address _to, uint256 _tokenId) internal {\n        ownershipTokenCount[_to]++;\n        gunIndexToOwner[_tokenId] = _to;\n\n        if (_from != address(0)) {\n            ownershipTokenCount[_from]--;\n            delete gunIndexToApproved[_tokenId];\n        }\n\n        emit Transfer(_from, _to, _tokenId);\n    }\n\n    //Creates a new Gun Struct.\n    function createGun(string _name, string _serial, string _manufacturer) returns (uint) {\n        Gun memory _newGun = Gun({\n            name: _name,\n            serial: _serial,\n            manufacturer: _manufacturer,\n            owner: msg.sender\n        });\n\n        uint256 newGunID = gunRecords.push(_newGun) - 1;\n        require(newGunID == uint256(uint32(newGunID)));\n\n        _transfer(0, msg.sender, newGunID);\n\n        return newGunID;\n    }\n\n    function setSecondsPerBlock(uint256 secs) external {\n        secondsPerBlock = secs;\n    }\n}\n\ncontract ERC721Metadata {\n    /// @dev Given a token Id, returns a byte array that is supposed to be converted into string.\n    function getMetadata(uint256 _tokenId, string) public view returns (bytes32[4] buffer, uint256 count) {\n        if (_tokenId == 1) {\n            buffer[0] = \"Hello World! :D\";\n            count = 15;\n        } else if (_tokenId == 2) {\n            buffer[0] = \"I would definitely choose a medi\";\n            buffer[1] = \"um length string.\";\n            count = 49;\n        } else if (_tokenId == 3) {\n            buffer[0] = \"Lorem ipsum dolor sit amet, mi e\";\n            buffer[1] = \"st accumsan dapibus augue lorem,\";\n            buffer[2] = \" tristique vestibulum id, libero\";\n            buffer[3] = \" suscipit varius sapien aliquam.\";\n            count = 128;\n        }\n    }\n}\n\ncontract GunOwnership is GunBase, ERC721 {\n    //Name and symbol of the non fungible token.\n    string public constant name = \"PISTL\";\n    string public constant symbol = \"P\";\n\n    // The contract that will return gun metadata\n    ERC721Metadata public erc721Metadata;\n\n    bytes4 constant InterfaceSignature_ERC165 = bytes4(keccak256(\"supportsInterface(bytes4)\"));\n\n    bytes4 constant InterfaceSignature_ERC721 =\n        bytes4(keccak256('name()')) ^\n        bytes4(keccak256('symbol()')) ^\n        bytes4(keccak256('totalSupply()')) ^\n        bytes4(keccak256('balanceOf(address)')) ^\n        bytes4(keccak256('ownerOf(uint256)')) ^\n        bytes4(keccak256('approve(address,uint256)')) ^\n        bytes4(keccak256('transfer(address,uint256)')) ^\n        bytes4(keccak256('transferFrom(address,address,uint256)')) ^\n        bytes4(keccak256('tokensOfOwner(address)')) ^\n        bytes4(keccak256('tokenMetadata(uint256,string)'));\n\n    /// @notice Introspection interface as per ERC-165 (https://github.com/ethereum/EIPs/issues/165).\n    ///  Returns true for any standardized interfaces implemented by this contract. We implement\n    ///  ERC-165 (obviously!) and ERC-721.\n    function supportsInterface(bytes4 _interfaceID) external view returns (bool)\n    {\n        return ((_interfaceID == InterfaceSignature_ERC165) || (_interfaceID == InterfaceSignature_ERC721));\n    }\n\n    /// @dev Set the address of the sibling contract that tracks metadata.\n    ///  CEO only.\n    function setMetadataAddress(address _contractAddress) public {\n        erc721Metadata = ERC721Metadata(_contractAddress);\n    }\n\n    //Checks if given address is current owner of a particular gun.\n    function _owns(address _claimer, uint256 _tokenID) internal view returns (bool) {\n        return gunIndexToOwner[_tokenID] == _claimer;\n    }\n\n    //Checks if a given address currently has transferApproval for a specified gun.\n    function _approvedFor(address _claimer, uint256 _tokenId) internal view returns (bool) {\n        return gunIndexToApproved[_tokenId] == _claimer;\n    }\n\n    //Allows address to be approved for transferFrom().\n    function _approve(uint256 _tokenId, address _approved) internal {\n        gunIndexToApproved[_tokenId] = _approved;\n    }\n\n    // Returns the number of Guns owned by a specific address.\n    function balanceOf(address _owner) public view returns (uint256 count) {\n        return ownershipTokenCount[_owner];\n    }\n\n    // Transfers a Gun to another address.\n    function transfer(address _to, uint256 _tokenId) external {\n        // Safety check to prevent against an unexpected 0x0 default.\n        require(_to != address(0), \"Unexpected address\");\n        // Disallow transfers to this contract to prevent accidental misuse.\n        // The contract should never own any guns.\n        require(_to != address(this), \"Invalid address\");\n\n        // You can only transfer your own gun.\n        require(_owns(msg.sender, _tokenId), \"Sender does not own this gun.\");\n\n        // Reassign ownership and emit Transfer event.\n        _transfer(msg.sender, _to, _tokenId);\n    }\n\n    // Grant another address the right to transfer ownership of a specific Gun.\n    function approve(address _to, uint256 _tokenId) external {\n        // Only an owner can grant transfer approval.\n        require(_owns(msg.sender, _tokenId));\n\n        // Register the approval (replacing any previous approval).\n        _approve(_tokenId, _to);\n\n        // Emit approval event.\n        emit Approval(msg.sender, _to, _tokenId);\n    }\n\n    // Transfer a Gun owned by another address, for which the calling address\n    //  has previously been granted transfer approval by the owner.\n    function transferFrom(address _from, address _to, uint256 _tokenId) external whenNotPaused {\n        // Safety check to prevent against an unexpected 0x0 default.\n        require(_to != address(0));\n        // Disallow transfers to this contract to prevent accidental misuse.\n        // The contract should never own any guns.\n        require(_to != address(this));\n        // Check for approval and valid ownership\n        require(_approvedFor(msg.sender, _tokenId));\n        require(_owns(_from, _tokenId));\n\n        // Reassign ownership and emits Transfer event.\n        _transfer(_from, _to, _tokenId);\n    }\n\n    // Returns the total number of Guns currently in existence.\n    function totalSupply() public view returns (uint) {\n        return gunRecords.length - 1;\n    }\n\n    // Returns the address currently assigned ownership of a given Gun.\n    function ownerOf(uint256 _tokenId) external view returns (address owner) {\n        owner = gunIndexToOwner[_tokenId];\n\n        require(owner != address(0));\n    }\n\n    // Returns a list of all Gun IDs assigned to an address.\n    function tokensOfOwner(address _owner) external view returns(uint256, uint256, uint256) {\n        uint256 tokenCount = 3;\n\n        if (tokenCount == 0) {\n            // Return an empty array\n            return (0, 0, 0);\n        } else {\n            uint256[] memory result = new uint256[](3);\n            uint256 totalGuns = totalSupply();\n            uint256 resultIndex = 0;\n\n            // We count on the fact that all guns have IDs starting at 1 and increasing\n            // sequentially up to the totalGun count.\n            uint256 gunId;\n\n            for (gunId = 1; gunId <= totalGuns; gunId++) {\n                if (gunIndexToOwner[gunId] == _owner) {\n                    result[resultIndex] = gunId;\n                    resultIndex++;\n                }\n            }\n\n            return (result[0], result[1], result[2]);\n        }\n    }\n}\n\n//Blocked and Loaded main contract.\ncontract GunCore is GunOwnership {\n\n    // This is the main Blocked and Loaded contract.\n    //\n    // The core contract is broked into multiple files using inheritence, one for each major\n    // facet of functionality of PISTL. The breakdown is as follows:\n    //\n    //      - GunBase: This is where we define the most fundamental code shared throughout the core\n    //             functionality. This includes our main data storage, constants and data types, plus\n    //             internal functions for managing these items.\n    //\n    //      - GunAccessControl: This contract manages the various addresses and constraints for operations\n    //             that can be executed only by specific roles. Namely CEO, CFO and COO.\n    //\n    //      - GunOwnership: This provides the methods required for basic non-fungible token\n    //             transactions, following the draft ERC-721 spec (https://github.com/ethereum/EIPs/issues/721).\n\n    //Set in case the core contract is broken and an upgrade is required\n    address public newContractAddress;\n\n    //Creates the main Blocked and Loaded smart contract instance.\n    constructor() public {\n        // Starts paused.\n        paused = true;\n\n        // the creator of the contract is the initial CEO\n        ceoAddress = msg.sender;\n\n        // the creator of the contract is also the initial COO\n        cooAddress = msg.sender;\n\n        // start with invalid gun to prevent ownership issues.\n        createGun(\"\", \"\", \"\");\n    }\n\n    ///  Used to mark the smart contract as upgraded, in case there is a serious\n    ///  breaking bug. This method does nothing but keep track of the new contract and\n    ///  emit a message indicating that the new address is set. It's up to clients of this\n    ///  contract to update to the new contract address in that case. (This contract will\n    ///  be paused indefinitely if such an upgrade takes place.)\n    function setNewAddress(address _v2Address) external {\n        // See README.md for updgrade plan\n        newContractAddress = _v2Address;\n        emit ContractUpgrade(_v2Address);\n    }\n\n    /// Returns all the relevant information about a specific gun.\n    function getGun(uint256 _id)\n        external\n        view\n        returns (\n        string name,\n        string manufacturer,\n        string serialNumber\n    ) {\n        Gun storage _gun = gunRecords[_id];\n\n        // if this variable is 0 then it's not gestating\n        name = _gun.name;\n        manufacturer = _gun.manufacturer;\n        serialNumber = _gun.serial;\n    }\n\n\n    /// Returns all the relevant information about a specific gun.\n    function getGunRecords()\n        external\n        view\n        returns (Gun[]){ gunRecords;\n    }\n\n    ///  Override unpause so it requires all external contract addresses\n    ///  to be set before contract can be unpaused. Also, we can't have\n    ///  newContractAddress set either, because then the contract was upgraded.\n    function unpause() public {\n        require(newContractAddress == address(0));\n\n        // Actually unpause the contract.\n        super.unpause();\n    }\n}",
  "sourcePath": "/Users/kimiazargari/Desktop/final/contracts/blocked.sol",
  "compiler": {
    "name": "solc",
    "version": "0.4.24+commit.e67f0147.Emscripten.clang"
  },
  "schemaVersion": "2.0.1",
  "updatedAt": "2018-12-01T06:30:27.326Z"
}