{
  "contractName": "GunCore",
  "abi": [
    {
      "constant": true,
      "inputs": [
        {
          "name": "_interfaceID",
          "type": "bytes4"
        }
      ],
      "name": "supportsInterface",
      "outputs": [
        {
          "name": "",
          "type": "bool"
        }
      ],
      "payable": false,
      "stateMutability": "view",
      "type": "function"
    },
    {
      "constant": true,
      "inputs": [],
      "name": "cfoAddress",
      "outputs": [
        {
          "name": "",
          "type": "address"
        }
      ],
      "payable": false,
      "stateMutability": "view",
      "type": "function"
    },
    {
      "constant": true,
      "inputs": [],
      "name": "name",
      "outputs": [
        {
          "name": "",
          "type": "string"
        }
      ],
      "payable": false,
      "stateMutability": "view",
      "type": "function"
    },
    {
      "constant": false,
      "inputs": [
        {
          "name": "_to",
          "type": "address"
        },
        {
          "name": "_tokenId",
          "type": "uint256"
        }
      ],
      "name": "approve",
      "outputs": [],
      "payable": false,
      "stateMutability": "nonpayable",
      "type": "function"
    },
    {
      "constant": true,
      "inputs": [],
      "name": "ceoAddress",
      "outputs": [
        {
          "name": "",
          "type": "address"
        }
      ],
      "payable": false,
      "stateMutability": "view",
      "type": "function"
    },
    {
      "constant": true,
      "inputs": [],
      "name": "totalSupply",
      "outputs": [
        {
          "name": "",
          "type": "uint256"
        }
      ],
      "payable": false,
      "stateMutability": "view",
      "type": "function"
    },
    {
      "constant": false,
      "inputs": [
        {
          "name": "_from",
          "type": "address"
        },
        {
          "name": "_to",
          "type": "address"
        },
        {
          "name": "_tokenId",
          "type": "uint256"
        }
      ],
      "name": "transferFrom",
      "outputs": [],
      "payable": false,
      "stateMutability": "nonpayable",
      "type": "function"
    },
    {
      "constant": false,
      "inputs": [
        {
          "name": "_newCEO",
          "type": "address"
        }
      ],
      "name": "setCEO",
      "outputs": [],
      "payable": false,
      "stateMutability": "nonpayable",
      "type": "function"
    },
    {
      "constant": false,
      "inputs": [
        {
          "name": "_newCOO",
          "type": "address"
        }
      ],
      "name": "setCOO",
      "outputs": [],
      "payable": false,
      "stateMutability": "nonpayable",
      "type": "function"
    },
    {
      "constant": false,
      "inputs": [
        {
          "name": "_newCFO",
          "type": "address"
        }
      ],
      "name": "setCFO",
      "outputs": [],
      "payable": false,
      "stateMutability": "nonpayable",
      "type": "function"
    },
    {
      "constant": false,
      "inputs": [
        {
          "name": "secs",
          "type": "uint256"
        }
      ],
      "name": "setSecondsPerBlock",
      "outputs": [],
      "payable": false,
      "stateMutability": "nonpayable",
      "type": "function"
    },
    {
      "constant": true,
      "inputs": [],
      "name": "paused",
      "outputs": [
        {
          "name": "",
          "type": "bool"
        }
      ],
      "payable": false,
      "stateMutability": "view",
      "type": "function"
    },
    {
      "constant": true,
      "inputs": [
        {
          "name": "_tokenId",
          "type": "uint256"
        }
      ],
      "name": "ownerOf",
      "outputs": [
        {
          "name": "owner",
          "type": "address"
        }
      ],
      "payable": false,
      "stateMutability": "view",
      "type": "function"
    },
    {
      "constant": true,
      "inputs": [],
      "name": "newContractAddress",
      "outputs": [
        {
          "name": "",
          "type": "address"
        }
      ],
      "payable": false,
      "stateMutability": "view",
      "type": "function"
    },
    {
      "constant": true,
      "inputs": [
        {
          "name": "_owner",
          "type": "address"
        }
      ],
      "name": "balanceOf",
      "outputs": [
        {
          "name": "count",
          "type": "uint256"
        }
      ],
      "payable": false,
      "stateMutability": "view",
      "type": "function"
    },
    {
      "constant": true,
      "inputs": [],
      "name": "secondsPerBlock",
      "outputs": [
        {
          "name": "",
          "type": "uint256"
        }
      ],
      "payable": false,
      "stateMutability": "view",
      "type": "function"
    },
    {
      "constant": false,
      "inputs": [],
      "name": "pause",
      "outputs": [],
      "payable": false,
      "stateMutability": "nonpayable",
      "type": "function"
    },
    {
      "constant": true,
      "inputs": [
        {
          "name": "_owner",
          "type": "address"
        }
      ],
      "name": "tokensOfOwner",
      "outputs": [
        {
          "name": "ownerTokens",
          "type": "uint256[]"
        }
      ],
      "payable": false,
      "stateMutability": "view",
      "type": "function"
    },
    {
      "constant": true,
      "inputs": [],
      "name": "symbol",
      "outputs": [
        {
          "name": "",
          "type": "string"
        }
      ],
      "payable": false,
      "stateMutability": "view",
      "type": "function"
    },
    {
      "constant": false,
      "inputs": [
        {
          "name": "_to",
          "type": "address"
        },
        {
          "name": "_tokenId",
          "type": "uint256"
        }
      ],
      "name": "transfer",
      "outputs": [],
      "payable": false,
      "stateMutability": "nonpayable",
      "type": "function"
    },
    {
      "constant": true,
      "inputs": [],
      "name": "cooAddress",
      "outputs": [
        {
          "name": "",
          "type": "address"
        }
      ],
      "payable": false,
      "stateMutability": "view",
      "type": "function"
    },
    {
      "constant": true,
      "inputs": [
        {
          "name": "",
          "type": "uint256"
        }
      ],
      "name": "gunIndexToOwner",
      "outputs": [
        {
          "name": "",
          "type": "address"
        }
      ],
      "payable": false,
      "stateMutability": "view",
      "type": "function"
    },
    {
      "constant": true,
      "inputs": [],
      "name": "erc721Metadata",
      "outputs": [
        {
          "name": "",
          "type": "address"
        }
      ],
      "payable": false,
      "stateMutability": "view",
      "type": "function"
    },
    {
      "constant": false,
      "inputs": [
        {
          "name": "_contractAddress",
          "type": "address"
        }
      ],
      "name": "setMetadataAddress",
      "outputs": [],
      "payable": false,
      "stateMutability": "nonpayable",
      "type": "function"
    },
    {
      "constant": false,
      "inputs": [
        {
          "name": "_name",
          "type": "string"
        },
        {
          "name": "_serial",
          "type": "string"
        },
        {
          "name": "_manufacturer",
          "type": "string"
        }
      ],
      "name": "createGun",
      "outputs": [
        {
          "name": "",
          "type": "uint256"
        }
      ],
      "payable": false,
      "stateMutability": "nonpayable",
      "type": "function"
    },
    {
      "inputs": [],
      "payable": false,
      "stateMutability": "nonpayable",
      "type": "constructor"
    },
    {
      "anonymous": false,
      "inputs": [
        {
          "indexed": false,
          "name": "from",
          "type": "address"
        },
        {
          "indexed": false,
          "name": "to",
          "type": "address"
        },
        {
          "indexed": false,
          "name": "tokenId",
          "type": "uint256"
        }
      ],
      "name": "Transfer",
      "type": "event"
    },
    {
      "anonymous": false,
      "inputs": [
        {
          "indexed": false,
          "name": "owner",
          "type": "address"
        },
        {
          "indexed": false,
          "name": "approved",
          "type": "address"
        },
        {
          "indexed": false,
          "name": "tokenId",
          "type": "uint256"
        }
      ],
      "name": "Approval",
      "type": "event"
    },
    {
      "anonymous": false,
      "inputs": [
        {
          "indexed": false,
          "name": "newContract",
          "type": "address"
        }
      ],
      "name": "ContractUpgrade",
      "type": "event"
    },
    {
      "constant": false,
      "inputs": [
        {
          "name": "_v2Address",
          "type": "address"
        }
      ],
      "name": "setNewAddress",
      "outputs": [],
      "payable": false,
      "stateMutability": "nonpayable",
      "type": "function"
    },
    {
      "constant": true,
      "inputs": [
        {
          "name": "_id",
          "type": "uint256"
        }
      ],
      "name": "getGun",
      "outputs": [
        {
          "name": "name",
          "type": "string"
        },
        {
          "name": "manufacturer",
          "type": "string"
        },
        {
          "name": "serialNumber",
          "type": "string"
        }
      ],
      "payable": false,
      "stateMutability": "view",
      "type": "function"
    },
    {
      "constant": false,
      "inputs": [],
      "name": "unpause",
      "outputs": [],
      "payable": false,
      "stateMutability": "nonpayable",
      "type": "function"
    }
  ],
  "bytecode": "0x60806040526000600260146101000a81548160ff021916908315150217905550600f6003553480156200003157600080fd5b506001600260146101000a81548160ff021916908315150217905550336000806101000a81548173ffffffffffffffffffffffffffffffffffffffff021916908373ffffffffffffffffffffffffffffffffffffffff16021790555033600260006101000a81548173ffffffffffffffffffffffffffffffffffffffff021916908373ffffffffffffffffffffffffffffffffffffffff1602179055506200011a60206040519081016040528060008152506020604051908101604052806000815250602060405190810160405280600081525062000121640100000000026401000000009004565b5062000571565b60006200012d62000483565b60006080604051908101604052808781526020018681526020018581526020013373ffffffffffffffffffffffffffffffffffffffff1681525091506001600483908060018154018082558091505090600182039060005260206000209060040201600090919290919091506000820151816000019080519060200190620001b7929190620004c2565b506020820151816001019080519060200190620001d6929190620004c2565b506040820151816002019080519060200190620001f5929190620004c2565b5060608201518160030160006101000a81548173ffffffffffffffffffffffffffffffffffffffff021916908373ffffffffffffffffffffffffffffffffffffffff16021790555050500390508063ffffffff16811415156200025757600080fd5b620002746000338362000280640100000000026401000000009004565b80925050509392505050565b600660008373ffffffffffffffffffffffffffffffffffffffff1673ffffffffffffffffffffffffffffffffffffffff16815260200190815260200160002060008154809291906001019190505550816005600083815260200190815260200160002060006101000a81548173ffffffffffffffffffffffffffffffffffffffff021916908373ffffffffffffffffffffffffffffffffffffffff160217905550600073ffffffffffffffffffffffffffffffffffffffff168373ffffffffffffffffffffffffffffffffffffffff16141515620003df57600660008473ffffffffffffffffffffffffffffffffffffffff1673ffffffffffffffffffffffffffffffffffffffff16815260200190815260200160002060008154809291906001900391905055506007600082815260200190815260200160002060006101000a81549073ffffffffffffffffffffffffffffffffffffffff02191690555b7fddf252ad1be2c89b69c2b068fc378daa952ba7f163c4a11628f55a4df523b3ef838383604051808473ffffffffffffffffffffffffffffffffffffffff1673ffffffffffffffffffffffffffffffffffffffff1681526020018373ffffffffffffffffffffffffffffffffffffffff1673ffffffffffffffffffffffffffffffffffffffff168152602001828152602001935050505060405180910390a1505050565b608060405190810160405280606081526020016060815260200160608152602001600073ffffffffffffffffffffffffffffffffffffffff1681525090565b828054600181600116156101000203166002900490600052602060002090601f016020900481019282601f106200050557805160ff191683800117855562000536565b8280016001018555821562000536579182015b828111156200053557825182559160200191906001019062000518565b5b50905062000545919062000549565b5090565b6200056e91905b808211156200056a57600081600090555060010162000550565b5090565b90565b6121f280620005816000396000f30060806040526004361061016a576000357c0100000000000000000000000000000000000000000000000000000000900463ffffffff16806301ffc9a71461016f5780630519ce79146101d357806306fdde031461022a578063095ea7b3146102ba5780630a0f81681461030757806318160ddd1461035e57806323b872dd1461038957806327d7874c146103f65780632ba73c15146104395780633f4ba83a1461047c5780634e0a3379146104935780635663896e146104d65780635c975abb146105035780636352211e146105325780636af04a571461059f57806370a08231146105f6578063715879881461064d5780637a7d4937146106905780638456cb59146106bb5780638462151c146106d257806395d89b411461076a578063a9059cbb146107fa578063b047fb5014610847578063b6af60cb1461089e578063bc4006f51461090b578063e17b25af14610962578063e2a3adf7146109a5578063e607bd9914610aae575b600080fd5b34801561017b57600080fd5b506101b960048036038101908080357bffffffffffffffffffffffffffffffffffffffffffffffffffffffff19169060200190929190505050610c2c565b604051808215151515815260200191505060405180910390f35b3480156101df57600080fd5b506101e8610f3d565b604051808273ffffffffffffffffffffffffffffffffffffffff1673ffffffffffffffffffffffffffffffffffffffff16815260200191505060405180910390f35b34801561023657600080fd5b5061023f610f63565b6040518080602001828103825283818151815260200191508051906020019080838360005b8381101561027f578082015181840152602081019050610264565b50505050905090810190601f1680156102ac5780820380516001836020036101000a031916815260200191505b509250505060405180910390f35b3480156102c657600080fd5b50610305600480360381019080803573ffffffffffffffffffffffffffffffffffffffff16906020019092919080359060200190929190505050610f9c565b005b34801561031357600080fd5b5061031c61105e565b604051808273ffffffffffffffffffffffffffffffffffffffff1673ffffffffffffffffffffffffffffffffffffffff16815260200191505060405180910390f35b34801561036a57600080fd5b50610373611083565b6040518082815260200191505060405180910390f35b34801561039557600080fd5b506103f4600480360381019080803573ffffffffffffffffffffffffffffffffffffffff169060200190929190803573ffffffffffffffffffffffffffffffffffffffff16906020019092919080359060200190929190505050611093565b005b34801561040257600080fd5b50610437600480360381019080803573ffffffffffffffffffffffffffffffffffffffff169060200190929190505050611160565b005b34801561044557600080fd5b5061047a600480360381019080803573ffffffffffffffffffffffffffffffffffffffff16906020019092919050505061123a565b005b34801561048857600080fd5b50610491611315565b005b34801561049f57600080fd5b506104d4600480360381019080803573ffffffffffffffffffffffffffffffffffffffff16906020019092919050505061137c565b005b3480156104e257600080fd5b5061050160048036038101908080359060200190929190505050611457565b005b34801561050f57600080fd5b50610518611461565b604051808215151515815260200191505060405180910390f35b34801561053e57600080fd5b5061055d60048036038101908080359060200190929190505050611474565b604051808273ffffffffffffffffffffffffffffffffffffffff1673ffffffffffffffffffffffffffffffffffffffff16815260200191505060405180910390f35b3480156105ab57600080fd5b506105b46114ed565b604051808273ffffffffffffffffffffffffffffffffffffffff1673ffffffffffffffffffffffffffffffffffffffff16815260200191505060405180910390f35b34801561060257600080fd5b50610637600480360381019080803573ffffffffffffffffffffffffffffffffffffffff169060200190929190505050611513565b6040518082815260200191505060405180910390f35b34801561065957600080fd5b5061068e600480360381019080803573ffffffffffffffffffffffffffffffffffffffff16906020019092919050505061155c565b005b34801561069c57600080fd5b506106a5611603565b6040518082815260200191505060405180910390f35b3480156106c757600080fd5b506106d0611609565b005b3480156106de57600080fd5b50610713600480360381019080803573ffffffffffffffffffffffffffffffffffffffff169060200190929190505050611626565b6040518080602001828103825283818151815260200191508051906020019060200280838360005b8381101561075657808201518184015260208101905061073b565b505050509050019250505060405180910390f35b34801561077657600080fd5b5061077f611773565b6040518080602001828103825283818151815260200191508051906020019080838360005b838110156107bf5780820151818401526020810190506107a4565b50505050905090810190601f1680156107ec5780820380516001836020036101000a031916815260200191505b509250505060405180910390f35b34801561080657600080fd5b50610845600480360381019080803573ffffffffffffffffffffffffffffffffffffffff169060200190929190803590602001909291905050506117ac565b005b34801561085357600080fd5b5061085c611982565b604051808273ffffffffffffffffffffffffffffffffffffffff1673ffffffffffffffffffffffffffffffffffffffff16815260200191505060405180910390f35b3480156108aa57600080fd5b506108c9600480360381019080803590602001909291905050506119a8565b604051808273ffffffffffffffffffffffffffffffffffffffff1673ffffffffffffffffffffffffffffffffffffffff16815260200191505060405180910390f35b34801561091757600080fd5b506109206119db565b604051808273ffffffffffffffffffffffffffffffffffffffff1673ffffffffffffffffffffffffffffffffffffffff16815260200191505060405180910390f35b34801561096e57600080fd5b506109a3600480360381019080803573ffffffffffffffffffffffffffffffffffffffff169060200190929190505050611a01565b005b3480156109b157600080fd5b50610a98600480360381019080803590602001908201803590602001908080601f0160208091040260200160405190810160405280939291908181526020018383808284378201915050505050509192919290803590602001908201803590602001908080601f0160208091040260200160405190810160405280939291908181526020018383808284378201915050505050509192919290803590602001908201803590602001908080601f0160208091040260200160405190810160405280939291908181526020018383808284378201915050505050509192919290505050611a45565b6040518082815260200191505060405180910390f35b348015610aba57600080fd5b50610ad960048036038101908080359060200190929190505050611b8a565b60405180806020018060200180602001848103845287818151815260200191508051906020019080838360005b83811015610b21578082015181840152602081019050610b06565b50505050905090810190601f168015610b4e5780820380516001836020036101000a031916815260200191505b50848103835286818151815260200191508051906020019080838360005b83811015610b87578082015181840152602081019050610b6c565b50505050905090810190601f168015610bb45780820380516001836020036101000a031916815260200191505b50848103825285818151815260200191508051906020019080838360005b83811015610bed578082015181840152602081019050610bd2565b50505050905090810190601f168015610c1a5780820380516001836020036101000a031916815260200191505b50965050505050505060405180910390f35b600060405180807f737570706f727473496e74657266616365286279746573342900000000000000815250601901905060405180910390207bffffffffffffffffffffffffffffffffffffffffffffffffffffffff1916827bffffffffffffffffffffffffffffffffffffffffffffffffffffffff19161480610f36575060405180807f746f6b656e4d657461646174612875696e743235362c737472696e6729000000815250601d019050604051809103902060405180807f746f6b656e734f664f776e6572286164647265737329000000000000000000008152506016019050604051809103902060405180807f7472616e7366657246726f6d28616464726573732c616464726573732c75696e81526020017f74323536290000000000000000000000000000000000000000000000000000008152506025019050604051809103902060405180807f7472616e7366657228616464726573732c75696e7432353629000000000000008152506019019050604051809103902060405180807f617070726f766528616464726573732c75696e743235362900000000000000008152506018019050604051809103902060405180807f6f776e65724f662875696e7432353629000000000000000000000000000000008152506010019050604051809103902060405180807f62616c616e63654f6628616464726573732900000000000000000000000000008152506012019050604051809103902060405180807f746f74616c537570706c79282900000000000000000000000000000000000000815250600d019050604051809103902060405180807f73796d626f6c28290000000000000000000000000000000000000000000000008152506008019050604051809103902060405180807f6e616d6528290000000000000000000000000000000000000000000000000000815250600601905060405180910390201818181818181818187bffffffffffffffffffffffffffffffffffffffffffffffffffffffff1916827bffffffffffffffffffffffffffffffffffffffffffffffffffffffff1916145b9050919050565b600160009054906101000a900473ffffffffffffffffffffffffffffffffffffffff1681565b6040805190810160405280600581526020017f504953544c00000000000000000000000000000000000000000000000000000081525081565b610fa63382611d95565b1515610fb157600080fd5b610fbb8183611e01565b7f8c5be1e5ebec7d5bd14f71427d1e84f3dd0314c0f7b2291e5b200ac8c7c3b925338383604051808473ffffffffffffffffffffffffffffffffffffffff1673ffffffffffffffffffffffffffffffffffffffff1681526020018373ffffffffffffffffffffffffffffffffffffffff1673ffffffffffffffffffffffffffffffffffffffff168152602001828152602001935050505060405180910390a15050565b6000809054906101000a900473ffffffffffffffffffffffffffffffffffffffff1681565b6000600160048054905003905090565b600260149054906101000a900460ff161515156110af57600080fd5b600073ffffffffffffffffffffffffffffffffffffffff168273ffffffffffffffffffffffffffffffffffffffff16141515156110eb57600080fd5b3073ffffffffffffffffffffffffffffffffffffffff168273ffffffffffffffffffffffffffffffffffffffff161415151561112657600080fd5b6111303382611e57565b151561113b57600080fd5b6111458382611d95565b151561115057600080fd5b61115b838383611ec3565b505050565b6000809054906101000a900473ffffffffffffffffffffffffffffffffffffffff1673ffffffffffffffffffffffffffffffffffffffff163373ffffffffffffffffffffffffffffffffffffffff161415156111bb57600080fd5b600073ffffffffffffffffffffffffffffffffffffffff168173ffffffffffffffffffffffffffffffffffffffff16141515156111f757600080fd5b806000806101000a81548173ffffffffffffffffffffffffffffffffffffffff021916908373ffffffffffffffffffffffffffffffffffffffff16021790555050565b6000809054906101000a900473ffffffffffffffffffffffffffffffffffffffff1673ffffffffffffffffffffffffffffffffffffffff163373ffffffffffffffffffffffffffffffffffffffff1614151561129557600080fd5b600073ffffffffffffffffffffffffffffffffffffffff168173ffffffffffffffffffffffffffffffffffffffff16141515156112d157600080fd5b80600260006101000a81548173ffffffffffffffffffffffffffffffffffffffff021916908373ffffffffffffffffffffffffffffffffffffffff16021790555050565b600073ffffffffffffffffffffffffffffffffffffffff16600960009054906101000a900473ffffffffffffffffffffffffffffffffffffffff1673ffffffffffffffffffffffffffffffffffffffff1614151561137257600080fd5b61137a6120c5565b565b6000809054906101000a900473ffffffffffffffffffffffffffffffffffffffff1673ffffffffffffffffffffffffffffffffffffffff163373ffffffffffffffffffffffffffffffffffffffff161415156113d757600080fd5b600073ffffffffffffffffffffffffffffffffffffffff168173ffffffffffffffffffffffffffffffffffffffff161415151561141357600080fd5b80600160006101000a81548173ffffffffffffffffffffffffffffffffffffffff021916908373ffffffffffffffffffffffffffffffffffffffff16021790555050565b8060038190555050565b600260149054906101000a900460ff1681565b60006005600083815260200190815260200160002060009054906101000a900473ffffffffffffffffffffffffffffffffffffffff169050600073ffffffffffffffffffffffffffffffffffffffff168173ffffffffffffffffffffffffffffffffffffffff16141515156114e857600080fd5b919050565b600960009054906101000a900473ffffffffffffffffffffffffffffffffffffffff1681565b6000600660008373ffffffffffffffffffffffffffffffffffffffff1673ffffffffffffffffffffffffffffffffffffffff168152602001908152602001600020549050919050565b80600960006101000a81548173ffffffffffffffffffffffffffffffffffffffff021916908373ffffffffffffffffffffffffffffffffffffffff1602179055507f450db8da6efbe9c22f2347f7c2021231df1fc58d3ae9a2fa75d39fa44619930581604051808273ffffffffffffffffffffffffffffffffffffffff1673ffffffffffffffffffffffffffffffffffffffff16815260200191505060405180910390a150565b60035481565b6001600260146101000a81548160ff021916908315150217905550565b606060006060600080600061163a87611513565b9450600085141561167d5760006040519080825280602002602001820160405280156116755781602001602082028038833980820191505090505b509550611769565b846040519080825280602002602001820160405280156116ac5781602001602082028038833980820191505090505b5093506116b7611083565b925060009150600190505b8281111515611765578673ffffffffffffffffffffffffffffffffffffffff166005600083815260200190815260200160002060009054906101000a900473ffffffffffffffffffffffffffffffffffffffff1673ffffffffffffffffffffffffffffffffffffffff1614156117585780848381518110151561174157fe5b906020019060200201818152505081806001019250505b80806001019150506116c2565b8395505b5050505050919050565b6040805190810160405280600181526020017f500000000000000000000000000000000000000000000000000000000000000081525081565b600073ffffffffffffffffffffffffffffffffffffffff168273ffffffffffffffffffffffffffffffffffffffff1614151515611851576040517f08c379a00000000000000000000000000000000000000000000000000000000081526004018080602001828103825260128152602001807f556e65787065637465642061646472657373000000000000000000000000000081525060200191505060405180910390fd5b3073ffffffffffffffffffffffffffffffffffffffff168273ffffffffffffffffffffffffffffffffffffffff16141515156118f5576040517f08c379a000000000000000000000000000000000000000000000000000000000815260040180806020018281038252600f8152602001807f496e76616c69642061646472657373000000000000000000000000000000000081525060200191505060405180910390fd5b6118ff3382611d95565b1515611973576040517f08c379a000000000000000000000000000000000000000000000000000000000815260040180806020018281038252601d8152602001807f53656e64657220646f6573206e6f74206f776e20746869732067756e2e00000081525060200191505060405180910390fd5b61197e338383611ec3565b5050565b600260009054906101000a900473ffffffffffffffffffffffffffffffffffffffff1681565b60056020528060005260406000206000915054906101000a900473ffffffffffffffffffffffffffffffffffffffff1681565b600860009054906101000a900473ffffffffffffffffffffffffffffffffffffffff1681565b80600860006101000a81548173ffffffffffffffffffffffffffffffffffffffff021916908373ffffffffffffffffffffffffffffffffffffffff16021790555050565b6000611a4f6120e2565b60006080604051908101604052808781526020018681526020018581526020013373ffffffffffffffffffffffffffffffffffffffff1681525091506001600483908060018154018082558091505090600182039060005260206000209060040201600090919290919091506000820151816000019080519060200190611ad7929190612121565b506020820151816001019080519060200190611af4929190612121565b506040820151816002019080519060200190611b11929190612121565b5060608201518160030160006101000a81548173ffffffffffffffffffffffffffffffffffffffff021916908373ffffffffffffffffffffffffffffffffffffffff16021790555050500390508063ffffffff1681141515611b7257600080fd5b611b7e60003383611ec3565b80925050509392505050565b60608060606000600485815481101515611ba057fe5b90600052602060002090600402019050806000018054600181600116156101000203166002900480601f016020809104026020016040519081016040528092919081815260200182805460018160011615610100020316600290048015611c485780601f10611c1d57610100808354040283529160200191611c48565b820191906000526020600020905b815481529060010190602001808311611c2b57829003601f168201915b50505050509350806002018054600181600116156101000203166002900480601f016020809104026020016040519081016040528092919081815260200182805460018160011615610100020316600290048015611ce75780601f10611cbc57610100808354040283529160200191611ce7565b820191906000526020600020905b815481529060010190602001808311611cca57829003601f168201915b50505050509250806001018054600181600116156101000203166002900480601f016020809104026020016040519081016040528092919081815260200182805460018160011615610100020316600290048015611d865780601f10611d5b57610100808354040283529160200191611d86565b820191906000526020600020905b815481529060010190602001808311611d6957829003601f168201915b50505050509150509193909250565b60008273ffffffffffffffffffffffffffffffffffffffff166005600084815260200190815260200160002060009054906101000a900473ffffffffffffffffffffffffffffffffffffffff1673ffffffffffffffffffffffffffffffffffffffff1614905092915050565b806007600084815260200190815260200160002060006101000a81548173ffffffffffffffffffffffffffffffffffffffff021916908373ffffffffffffffffffffffffffffffffffffffff1602179055505050565b60008273ffffffffffffffffffffffffffffffffffffffff166007600084815260200190815260200160002060009054906101000a900473ffffffffffffffffffffffffffffffffffffffff1673ffffffffffffffffffffffffffffffffffffffff1614905092915050565b600660008373ffffffffffffffffffffffffffffffffffffffff1673ffffffffffffffffffffffffffffffffffffffff16815260200190815260200160002060008154809291906001019190505550816005600083815260200190815260200160002060006101000a81548173ffffffffffffffffffffffffffffffffffffffff021916908373ffffffffffffffffffffffffffffffffffffffff160217905550600073ffffffffffffffffffffffffffffffffffffffff168373ffffffffffffffffffffffffffffffffffffffff1614151561202157600660008473ffffffffffffffffffffffffffffffffffffffff1673ffffffffffffffffffffffffffffffffffffffff16815260200190815260200160002060008154809291906001900391905055506007600082815260200190815260200160002060006101000a81549073ffffffffffffffffffffffffffffffffffffffff02191690555b7fddf252ad1be2c89b69c2b068fc378daa952ba7f163c4a11628f55a4df523b3ef838383604051808473ffffffffffffffffffffffffffffffffffffffff1673ffffffffffffffffffffffffffffffffffffffff1681526020018373ffffffffffffffffffffffffffffffffffffffff1673ffffffffffffffffffffffffffffffffffffffff168152602001828152602001935050505060405180910390a1505050565b6000600260146101000a81548160ff021916908315150217905550565b608060405190810160405280606081526020016060815260200160608152602001600073ffffffffffffffffffffffffffffffffffffffff1681525090565b828054600181600116156101000203166002900490600052602060002090601f016020900481019282601f1061216257805160ff1916838001178555612190565b82800160010185558215612190579182015b8281111561218f578251825591602001919060010190612174565b5b50905061219d91906121a1565b5090565b6121c391905b808211156121bf5760008160009055506001016121a7565b5090565b905600a165627a7a7230582093b37b69c47668cdbe0dd512fced3b12d2d465dc51afea8272a4778091e12a780029",
  "source": "pragma solidity ^0.4.23;\r\n\r\ncontract ERC721 {\r\n    // Required methods\r\n    function totalSupply() public view returns (uint256 total);\r\n    function balanceOf(address _owner) public view returns (uint256 balance);\r\n    function ownerOf(uint256 _tokenId) external view returns (address owner);\r\n    function approve(address _to, uint256 _tokenId) external;\r\n    function transfer(address _to, uint256 _tokenId) external;\r\n    function transferFrom(address _from, address _to, uint256 _tokenId) external;\r\n\r\n    // Events\r\n    event Transfer(address from, address to, uint256 tokenId);\r\n    event Approval(address owner, address approved, uint256 tokenId);\r\n\r\n    // ERC-165 Compatibility (https://github.com/ethereum/EIPs/issues/165)\r\n    function supportsInterface(bytes4 _interfaceID) external view returns (bool);\r\n}\r\n\r\ncontract GunAccessControl {\r\n    // This facet controls access control for Blocked and Loaded. There are four roles managed here:\r\n    //\r\n    //     - The CEO: The CEO can reassign other roles and change the addresses of our dependent smart\r\n    //         contracts. It is also the only role that can unpause the smart contract. It is initially\r\n    //         set to the address that created the smart contract in the GunCore constructor.\r\n    //\r\n    //     - The CFO: The CFO can withdraw funds from GunCore and its auction contracts.\r\n    //\r\n    //     - The COO\r\n    //\r\n    // It should be noted that these roles are distinct without overlap in their access abilities, the\r\n    // abilities listed for each role above are exhaustive. In particular, while the CEO can assign any\r\n    // address to any role, the CEO address itself doesn't have the ability to act in those roles. This\r\n    // restriction is intentional so that we aren't tempted to use the CEO address frequently out of\r\n    // convenience. The less we use an address, the less likely it is that we somehow compromise the\r\n    // account.\r\n\r\n    event ContractUpgrade(address newContract);\r\n\r\n    // The addresses of the accounts (or contracts) that can execute actions within each roles.\r\n    address public ceoAddress;\r\n    address public cfoAddress;\r\n    address public cooAddress;\r\n\r\n    // Keeps track whether the contract is paused. When that is true, most actions are blocked\r\n    bool public paused = false;\r\n\r\n    /// Access modifier for CEO-only functionality\r\n    modifier onlyCEO() {\r\n        require(msg.sender == ceoAddress);\r\n        _;\r\n    }\r\n\r\n    /// Access modifier for CFO-only functionality\r\n    modifier onlyCFO() {\r\n        require(msg.sender == cfoAddress);\r\n        _;\r\n    }\r\n\r\n    /// Access modifier for COO-only functionality\r\n    modifier onlyCOO() {\r\n        require(msg.sender == cooAddress);\r\n        _;\r\n    }\r\n\r\n    modifier onlyCLevel() {\r\n        require(\r\n            msg.sender == cooAddress ||\r\n            msg.sender == ceoAddress ||\r\n            msg.sender == cfoAddress\r\n        );\r\n        _;\r\n    }\r\n\r\n    /// Assigns a new address to act as the CEO. Only available to the current CEO.\r\n    function setCEO(address _newCEO) external onlyCEO {\r\n        require(_newCEO != address(0));\r\n\r\n        ceoAddress = _newCEO;\r\n    }\r\n\r\n    /// Assigns a new address to act as the CFO. Only available to the current CEO.\r\n    function setCFO(address _newCFO) external onlyCEO {\r\n        require(_newCFO != address(0));\r\n\r\n        cfoAddress = _newCFO;\r\n    }\r\n\r\n    /// Assigns a new address to act as the COO. Only available to the current CEO.\r\n    function setCOO(address _newCOO) external onlyCEO {\r\n        require(_newCOO != address(0));\r\n\r\n        cooAddress = _newCOO;\r\n    }\r\n\r\n    /*** Pausable functionality adapted from OpenZeppelin ***/\r\n\r\n    /// Modifier to allow actions only when the contract IS NOT paused\r\n    modifier whenNotPaused() {\r\n        require(!paused);\r\n        _;\r\n    }\r\n\r\n    /// Modifier to allow actions only when the contract IS paused\r\n    modifier whenPaused {\r\n        require(paused);\r\n        _;\r\n    }\r\n\r\n    /// Called by any \"C-level\" role to pause the contract.\r\n    function pause() external {\r\n        paused = true;\r\n    }\r\n\r\n    ///  Unpauses the smart contract. Can only be called by the CEO, since\r\n    ///  one reason we may pause the contract is when CFO or COO accounts are\r\n    ///  compromised.\r\n    function unpause() public {\r\n        paused = false;\r\n    }\r\n}\r\n\r\ncontract GunBase is GunAccessControl {\r\n    //Transfer event as defined in current draft of ERC721. Emitted every time\r\n    //a gun ownership is assigned.\r\n    event Transfer(address from, address to, uint256 tokenId);\r\n\r\n    //An approximation of currently how many seconds are in between block\r\n    uint256 public secondsPerBlock = 15;\r\n\r\n    //Main Gun Struct. \r\n    struct Gun {\r\n        string name;\r\n        string serial;\r\n        string manufacturer;\r\n        address owner;\r\n    }\r\n\r\n    //All guns in existence. The ID of each gun is an index to this array. Gun ID 0 is invalid.\r\n    Gun[] gunRecords;\r\n\r\n    //Mapping of gun's ID to address of the owner.\r\n    mapping(uint256 => address) public gunIndexToOwner;\r\n\r\n    //Mapping from owner address to count of tokens that address owns.\r\n    mapping(address => uint256) ownershipTokenCount;\r\n\r\n    //Mapping from GunIDs to an address that has been approved to call transferFrom().\r\n    //Each Gun can only have 1 approved address for transfer at any time.\r\n    mapping(uint256 => address) gunIndexToApproved;\r\n\r\n    //The address of the ClockAuction contract that handles sales of Guns. This also handles\r\n    //P2P sales.\r\n\r\n    //Assigns ownership of a specific Gun to a new address.\r\n    function _transfer(address _from, address _to, uint256 _tokenId) internal {\r\n        ownershipTokenCount[_to]++;\r\n        gunIndexToOwner[_tokenId] = _to;\r\n\r\n        if (_from != address(0)) {\r\n            ownershipTokenCount[_from]--;\r\n            delete gunIndexToApproved[_tokenId];\r\n        }\r\n\r\n        emit Transfer(_from, _to, _tokenId);\r\n    }\r\n\r\n    //Creates a new Gun Struct.\r\n    function createGun(string _name, string _serial, string _manufacturer) returns (uint) {\r\n        Gun memory _newGun = Gun({\r\n            name: _name,\r\n            serial: _serial,\r\n            manufacturer: _manufacturer,\r\n            owner: msg.sender\r\n        });\r\n\r\n        uint256 newGunID = gunRecords.push(_newGun) - 1;\r\n        require(newGunID == uint256(uint32(newGunID)));\r\n\r\n        _transfer(0, msg.sender, newGunID);\r\n\r\n        return newGunID;\r\n    }\r\n\r\n    function setSecondsPerBlock(uint256 secs) external {\r\n        secondsPerBlock = secs;\r\n    }\r\n}\r\n\r\ncontract ERC721Metadata {\r\n    /// @dev Given a token Id, returns a byte array that is supposed to be converted into string.\r\n    function getMetadata(uint256 _tokenId, string) public view returns (bytes32[4] buffer, uint256 count) {\r\n        if (_tokenId == 1) {\r\n            buffer[0] = \"Hello World! :D\";\r\n            count = 15;\r\n        } else if (_tokenId == 2) {\r\n            buffer[0] = \"I would definitely choose a medi\";\r\n            buffer[1] = \"um length string.\";\r\n            count = 49;\r\n        } else if (_tokenId == 3) {\r\n            buffer[0] = \"Lorem ipsum dolor sit amet, mi e\";\r\n            buffer[1] = \"st accumsan dapibus augue lorem,\";\r\n            buffer[2] = \" tristique vestibulum id, libero\";\r\n            buffer[3] = \" suscipit varius sapien aliquam.\";\r\n            count = 128;\r\n        }\r\n    }\r\n}\r\n\r\ncontract GunOwnership is GunBase, ERC721 {\r\n    //Name and symbol of the non fungible token.\r\n    string public constant name = \"PISTL\";\r\n    string public constant symbol = \"P\";\r\n\r\n    // The contract that will return gun metadata\r\n    ERC721Metadata public erc721Metadata;\r\n\r\n    bytes4 constant InterfaceSignature_ERC165 = bytes4(keccak256(\"supportsInterface(bytes4)\"));\r\n\r\n    bytes4 constant InterfaceSignature_ERC721 =\r\n        bytes4(keccak256('name()')) ^\r\n        bytes4(keccak256('symbol()')) ^\r\n        bytes4(keccak256('totalSupply()')) ^\r\n        bytes4(keccak256('balanceOf(address)')) ^\r\n        bytes4(keccak256('ownerOf(uint256)')) ^\r\n        bytes4(keccak256('approve(address,uint256)')) ^\r\n        bytes4(keccak256('transfer(address,uint256)')) ^\r\n        bytes4(keccak256('transferFrom(address,address,uint256)')) ^\r\n        bytes4(keccak256('tokensOfOwner(address)')) ^\r\n        bytes4(keccak256('tokenMetadata(uint256,string)'));\r\n\r\n    /// @notice Introspection interface as per ERC-165 (https://github.com/ethereum/EIPs/issues/165).\r\n    ///  Returns true for any standardized interfaces implemented by this contract. We implement\r\n    ///  ERC-165 (obviously!) and ERC-721.\r\n    function supportsInterface(bytes4 _interfaceID) external view returns (bool)\r\n    {\r\n        return ((_interfaceID == InterfaceSignature_ERC165) || (_interfaceID == InterfaceSignature_ERC721));\r\n    }\r\n\r\n    /// @dev Set the address of the sibling contract that tracks metadata.\r\n    ///  CEO only.\r\n    function setMetadataAddress(address _contractAddress) public {\r\n        erc721Metadata = ERC721Metadata(_contractAddress);\r\n    }\r\n\r\n    //Checks if given address is current owner of a particular gun.\r\n    function _owns(address _claimer, uint256 _tokenID) internal view returns (bool) {\r\n        return gunIndexToOwner[_tokenID] == _claimer;\r\n    }\r\n\r\n    //Checks if a given address currently has transferApproval for a specified gun.\r\n    function _approvedFor(address _claimer, uint256 _tokenId) internal view returns (bool) {\r\n        return gunIndexToApproved[_tokenId] == _claimer;\r\n    }\r\n\r\n    //Allows address to be approved for transferFrom().\r\n    function _approve(uint256 _tokenId, address _approved) internal {\r\n        gunIndexToApproved[_tokenId] = _approved;\r\n    }\r\n\r\n    // Returns the number of Guns owned by a specific address.\r\n    function balanceOf(address _owner) public view returns (uint256 count) {\r\n        return ownershipTokenCount[_owner];\r\n    }\r\n\r\n    // Transfers a Gun to another address.\r\n    function transfer(address _to, uint256 _tokenId) external {\r\n        // Safety check to prevent against an unexpected 0x0 default.\r\n        require(_to != address(0), \"Unexpected address\");\r\n        // Disallow transfers to this contract to prevent accidental misuse.\r\n        // The contract should never own any guns.\r\n        require(_to != address(this), \"Invalid address\");\r\n\r\n        // You can only transfer your own gun.\r\n        require(_owns(msg.sender, _tokenId), \"Sender does not own this gun.\");\r\n\r\n        // Reassign ownership and emit Transfer event.\r\n        _transfer(msg.sender, _to, _tokenId);\r\n    }\r\n\r\n    // Grant another address the right to transfer ownership of a specific Gun.\r\n    function approve(address _to, uint256 _tokenId) external {\r\n        // Only an owner can grant transfer approval.\r\n        require(_owns(msg.sender, _tokenId));\r\n\r\n        // Register the approval (replacing any previous approval).\r\n        _approve(_tokenId, _to);\r\n\r\n        // Emit approval event.\r\n        emit Approval(msg.sender, _to, _tokenId);\r\n    }\r\n\r\n    // Transfer a Gun owned by another address, for which the calling address\r\n    //  has previously been granted transfer approval by the owner.\r\n    function transferFrom(address _from, address _to, uint256 _tokenId) external whenNotPaused {\r\n        // Safety check to prevent against an unexpected 0x0 default.\r\n        require(_to != address(0));\r\n        // Disallow transfers to this contract to prevent accidental misuse.\r\n        // The contract should never own any guns.\r\n        require(_to != address(this));\r\n        // Check for approval and valid ownership\r\n        require(_approvedFor(msg.sender, _tokenId));\r\n        require(_owns(_from, _tokenId));\r\n\r\n        // Reassign ownership and emits Transfer event.\r\n        _transfer(_from, _to, _tokenId);\r\n    }\r\n\r\n    // Returns the total number of Guns currently in existence.\r\n    function totalSupply() public view returns (uint) {\r\n        return gunRecords.length - 1;\r\n    }\r\n\r\n    // Returns the address currently assigned ownership of a given Gun.\r\n    function ownerOf(uint256 _tokenId) external view returns (address owner) {\r\n        owner = gunIndexToOwner[_tokenId];\r\n\r\n        require(owner != address(0));\r\n    }\r\n\r\n    // Returns a list of all Gun IDs assigned to an address.\r\n    function tokensOfOwner(address _owner) external view returns(uint256[] ownerTokens) {\r\n        uint256 tokenCount = balanceOf(_owner);\r\n\r\n        if (tokenCount == 0) {\r\n            // Return an empty array\r\n            return new uint256[](0);\r\n        } else {\r\n            uint256[] memory result = new uint256[](tokenCount);\r\n            uint256 totalGuns = totalSupply();\r\n            uint256 resultIndex = 0;\r\n\r\n            // We count on the fact that all guns have IDs starting at 1 and increasing\r\n            // sequentially up to the totalGun count.\r\n            uint256 gunId;\r\n\r\n            for (gunId = 1; gunId <= totalGuns; gunId++) {\r\n                if (gunIndexToOwner[gunId] == _owner) {\r\n                    result[resultIndex] = gunId;\r\n                    resultIndex++;\r\n                }\r\n            }\r\n\r\n            return result;\r\n        }\r\n    }\r\n}\r\n\r\n//Blocked and Loaded main contract.\r\ncontract GunCore is GunOwnership {\r\n\r\n    // This is the main Blocked and Loaded contract.\r\n    //\r\n    // The core contract is broked into multiple files using inheritence, one for each major\r\n    // facet of functionality of PISTL. The breakdown is as follows:\r\n    //\r\n    //      - GunBase: This is where we define the most fundamental code shared throughout the core\r\n    //             functionality. This includes our main data storage, constants and data types, plus\r\n    //             internal functions for managing these items.\r\n    //\r\n    //      - GunAccessControl: This contract manages the various addresses and constraints for operations\r\n    //             that can be executed only by specific roles. Namely CEO, CFO and COO.\r\n    //\r\n    //      - GunOwnership: This provides the methods required for basic non-fungible token\r\n    //             transactions, following the draft ERC-721 spec (https://github.com/ethereum/EIPs/issues/721).\r\n\r\n    //Set in case the core contract is broken and an upgrade is required\r\n    address public newContractAddress;\r\n\r\n    //Creates the main Blocked and Loaded smart contract instance.\r\n    constructor() public {\r\n        // Starts paused.\r\n        paused = true;\r\n\r\n        // the creator of the contract is the initial CEO\r\n        ceoAddress = msg.sender;\r\n\r\n        // the creator of the contract is also the initial COO\r\n        cooAddress = msg.sender;\r\n\r\n        // start with invalid gun to prevent ownership issues.\r\n        createGun(\"\", \"\", \"\");\r\n    }\r\n\r\n    ///  Used to mark the smart contract as upgraded, in case there is a serious\r\n    ///  breaking bug. This method does nothing but keep track of the new contract and\r\n    ///  emit a message indicating that the new address is set. It's up to clients of this\r\n    ///  contract to update to the new contract address in that case. (This contract will\r\n    ///  be paused indefinitely if such an upgrade takes place.)\r\n    function setNewAddress(address _v2Address) external {\r\n        // See README.md for updgrade plan\r\n        newContractAddress = _v2Address;\r\n        emit ContractUpgrade(_v2Address);\r\n    }\r\n\r\n    /// Returns all the relevant information about a specific gun.\r\n    function getGun(uint256 _id)\r\n        external\r\n        view\r\n        returns (\r\n        string name,\r\n        string manufacturer,\r\n        string serialNumber\r\n    ) {\r\n        Gun storage _gun = gunRecords[_id];\r\n\r\n        // if this variable is 0 then it's not gestating\r\n        name = _gun.name;\r\n        manufacturer = _gun.manufacturer;\r\n        serialNumber = _gun.serial;\r\n    }\r\n\r\n    ///  Override unpause so it requires all external contract addresses\r\n    ///  to be set before contract can be unpaused. Also, we can't have\r\n    ///  newContractAddress set either, because then the contract was upgraded.\r\n    function unpause() public {\r\n        require(newContractAddress == address(0));\r\n\r\n        // Actually unpause the contract.\r\n        super.unpause();\r\n    }\r\n}",
  "sourcePath": "C:\\Users\\Karina\\Desktop\\final\\contracts\\blocked.sol",
  "compiler": {
    "name": "solc",
    "version": "0.4.24+commit.e67f0147.Emscripten.clang"
  },
  "schemaVersion": "2.0.1",
  "updatedAt": "2018-12-01T04:36:05.863Z"
}