{
  "contractName": "GunOwnership",
  "abi": [
    {
      "constant": true,
      "inputs": [],
      "name": "cfoAddress",
      "outputs": [
        {
          "name": "",
          "type": "address"
        }
      ],
      "payable": false,
      "stateMutability": "view",
      "type": "function"
    },
    {
      "constant": true,
      "inputs": [],
      "name": "name",
      "outputs": [
        {
          "name": "",
          "type": "string"
        }
      ],
      "payable": false,
      "stateMutability": "view",
      "type": "function"
    },
    {
      "constant": true,
      "inputs": [],
      "name": "ceoAddress",
      "outputs": [
        {
          "name": "",
          "type": "address"
        }
      ],
      "payable": false,
      "stateMutability": "view",
      "type": "function"
    },
    {
      "constant": false,
      "inputs": [
        {
          "name": "_newCEO",
          "type": "address"
        }
      ],
      "name": "setCEO",
      "outputs": [],
      "payable": false,
      "stateMutability": "nonpayable",
      "type": "function"
    },
    {
      "constant": false,
      "inputs": [
        {
          "name": "_newCOO",
          "type": "address"
        }
      ],
      "name": "setCOO",
      "outputs": [],
      "payable": false,
      "stateMutability": "nonpayable",
      "type": "function"
    },
    {
      "constant": false,
      "inputs": [],
      "name": "unpause",
      "outputs": [],
      "payable": false,
      "stateMutability": "nonpayable",
      "type": "function"
    },
    {
      "constant": false,
      "inputs": [
        {
          "name": "_newCFO",
          "type": "address"
        }
      ],
      "name": "setCFO",
      "outputs": [],
      "payable": false,
      "stateMutability": "nonpayable",
      "type": "function"
    },
    {
      "constant": false,
      "inputs": [
        {
          "name": "secs",
          "type": "uint256"
        }
      ],
      "name": "setSecondsPerBlock",
      "outputs": [],
      "payable": false,
      "stateMutability": "nonpayable",
      "type": "function"
    },
    {
      "constant": true,
      "inputs": [],
      "name": "paused",
      "outputs": [
        {
          "name": "",
          "type": "bool"
        }
      ],
      "payable": false,
      "stateMutability": "view",
      "type": "function"
    },
    {
      "constant": true,
      "inputs": [],
      "name": "secondsPerBlock",
      "outputs": [
        {
          "name": "",
          "type": "uint256"
        }
      ],
      "payable": false,
      "stateMutability": "view",
      "type": "function"
    },
    {
      "constant": false,
      "inputs": [],
      "name": "pause",
      "outputs": [],
      "payable": false,
      "stateMutability": "nonpayable",
      "type": "function"
    },
    {
      "constant": true,
      "inputs": [],
      "name": "symbol",
      "outputs": [
        {
          "name": "",
          "type": "string"
        }
      ],
      "payable": false,
      "stateMutability": "view",
      "type": "function"
    },
    {
      "constant": true,
      "inputs": [],
      "name": "cooAddress",
      "outputs": [
        {
          "name": "",
          "type": "address"
        }
      ],
      "payable": false,
      "stateMutability": "view",
      "type": "function"
    },
    {
      "constant": true,
      "inputs": [
        {
          "name": "",
          "type": "uint256"
        }
      ],
      "name": "gunIndexToOwner",
      "outputs": [
        {
          "name": "",
          "type": "address"
        }
      ],
      "payable": false,
      "stateMutability": "view",
      "type": "function"
    },
    {
      "constant": true,
      "inputs": [],
      "name": "erc721Metadata",
      "outputs": [
        {
          "name": "",
          "type": "address"
        }
      ],
      "payable": false,
      "stateMutability": "view",
      "type": "function"
    },
    {
      "constant": false,
      "inputs": [
        {
          "name": "_name",
          "type": "string"
        },
        {
          "name": "_serial",
          "type": "string"
        },
        {
          "name": "_manufacturer",
          "type": "string"
        }
      ],
      "name": "createGun",
      "outputs": [
        {
          "name": "",
          "type": "uint256"
        }
      ],
      "payable": false,
      "stateMutability": "nonpayable",
      "type": "function"
    },
    {
      "anonymous": false,
      "inputs": [
        {
          "indexed": false,
          "name": "from",
          "type": "address"
        },
        {
          "indexed": false,
          "name": "to",
          "type": "address"
        },
        {
          "indexed": false,
          "name": "tokenId",
          "type": "uint256"
        }
      ],
      "name": "Transfer",
      "type": "event"
    },
    {
      "anonymous": false,
      "inputs": [
        {
          "indexed": false,
          "name": "owner",
          "type": "address"
        },
        {
          "indexed": false,
          "name": "approved",
          "type": "address"
        },
        {
          "indexed": false,
          "name": "tokenId",
          "type": "uint256"
        }
      ],
      "name": "Approval",
      "type": "event"
    },
    {
      "anonymous": false,
      "inputs": [
        {
          "indexed": false,
          "name": "newContract",
          "type": "address"
        }
      ],
      "name": "ContractUpgrade",
      "type": "event"
    },
    {
      "constant": true,
      "inputs": [
        {
          "name": "_interfaceID",
          "type": "bytes4"
        }
      ],
      "name": "supportsInterface",
      "outputs": [
        {
          "name": "",
          "type": "bool"
        }
      ],
      "payable": false,
      "stateMutability": "view",
      "type": "function"
    },
    {
      "constant": false,
      "inputs": [
        {
          "name": "_contractAddress",
          "type": "address"
        }
      ],
      "name": "setMetadataAddress",
      "outputs": [],
      "payable": false,
      "stateMutability": "nonpayable",
      "type": "function"
    },
    {
      "constant": true,
      "inputs": [
        {
          "name": "_owner",
          "type": "address"
        }
      ],
      "name": "balanceOf",
      "outputs": [
        {
          "name": "count",
          "type": "uint256"
        }
      ],
      "payable": false,
      "stateMutability": "view",
      "type": "function"
    },
    {
      "constant": false,
      "inputs": [
        {
          "name": "_to",
          "type": "address"
        },
        {
          "name": "_tokenId",
          "type": "uint256"
        }
      ],
      "name": "transfer",
      "outputs": [],
      "payable": false,
      "stateMutability": "nonpayable",
      "type": "function"
    },
    {
      "constant": false,
      "inputs": [
        {
          "name": "_to",
          "type": "address"
        },
        {
          "name": "_tokenId",
          "type": "uint256"
        }
      ],
      "name": "approve",
      "outputs": [],
      "payable": false,
      "stateMutability": "nonpayable",
      "type": "function"
    },
    {
      "constant": false,
      "inputs": [
        {
          "name": "_from",
          "type": "address"
        },
        {
          "name": "_to",
          "type": "address"
        },
        {
          "name": "_tokenId",
          "type": "uint256"
        }
      ],
      "name": "transferFrom",
      "outputs": [],
      "payable": false,
      "stateMutability": "nonpayable",
      "type": "function"
    },
    {
      "constant": true,
      "inputs": [],
      "name": "totalSupply",
      "outputs": [
        {
          "name": "",
          "type": "uint256"
        }
      ],
      "payable": false,
      "stateMutability": "view",
      "type": "function"
    },
    {
      "constant": true,
      "inputs": [
        {
          "name": "_tokenId",
          "type": "uint256"
        }
      ],
      "name": "ownerOf",
      "outputs": [
        {
          "name": "owner",
          "type": "address"
        }
      ],
      "payable": false,
      "stateMutability": "view",
      "type": "function"
    },
    {
      "constant": true,
      "inputs": [
        {
          "name": "_owner",
          "type": "address"
        }
      ],
      "name": "tokensOfOwner",
      "outputs": [
        {
          "name": "",
          "type": "uint256"
        },
        {
          "name": "",
          "type": "uint256"
        },
        {
          "name": "",
          "type": "uint256"
        }
      ],
      "payable": false,
      "stateMutability": "view",
      "type": "function"
    }
  ],
  "bytecode": "0x60806040526000600260146101000a81548160ff021916908315150217905550600f60035534801561003057600080fd5b50611d0f806100406000396000f300608060405260043610610149576000357c0100000000000000000000000000000000000000000000000000000000900463ffffffff16806301ffc9a71461014e5780630519ce791461018b57806306fdde03146101b6578063095ea7b3146101e15780630a0f81681461020a57806318160ddd1461023557806323b872dd1461026057806327d7874c146102895780632ba73c15146102b25780633f4ba83a146102db5780634e0a3379146102f25780635663896e1461031b5780635c975abb146103445780636352211e1461036f57806370a08231146103ac5780637a7d4937146103e95780638456cb59146104145780638462151c1461042b57806395d89b411461046a578063a9059cbb14610495578063b047fb50146104be578063b6af60cb146104e9578063bc4006f514610526578063e17b25af14610551578063e2a3adf71461057a575b600080fd5b34801561015a57600080fd5b5061017560048036036101709190810190611824565b6105b7565b6040516101829190611a76565b60405180910390f35b34801561019757600080fd5b506101a06108c8565b6040516101ad9190611a24565b60405180910390f35b3480156101c257600080fd5b506101cb6108ee565b6040516101d89190611aac565b60405180910390f35b3480156101ed57600080fd5b50610208600480360361020391908101906117e8565b610927565b005b34801561021657600080fd5b5061021f610985565b60405161022c9190611a24565b60405180910390f35b34801561024157600080fd5b5061024a6109aa565b6040516102579190611b2e565b60405180910390f35b34801561026c57600080fd5b5061028760048036036102829190810190611799565b6109ba565b005b34801561029557600080fd5b506102b060048036036102ab9190810190611770565b610a87565b005b3480156102be57600080fd5b506102d960048036036102d49190810190611770565b610b61565b005b3480156102e757600080fd5b506102f0610c3c565b005b3480156102fe57600080fd5b5061031960048036036103149190810190611770565b610c59565b005b34801561032757600080fd5b50610342600480360361033d91908101906118e4565b610d34565b005b34801561035057600080fd5b50610359610d3e565b6040516103669190611a76565b60405180910390f35b34801561037b57600080fd5b50610396600480360361039191908101906118e4565b610d51565b6040516103a39190611a24565b60405180910390f35b3480156103b857600080fd5b506103d360048036036103ce9190810190611770565b610dca565b6040516103e09190611b2e565b60405180910390f35b3480156103f557600080fd5b506103fe610e13565b60405161040b9190611b2e565b60405180910390f35b34801561042057600080fd5b50610429610e19565b005b34801561043757600080fd5b50610452600480360361044d9190810190611770565b610e36565b60405161046193929190611b49565b60405180910390f35b34801561047657600080fd5b5061047f610fb0565b60405161048c9190611aac565b60405180910390f35b3480156104a157600080fd5b506104bc60048036036104b791908101906117e8565b610fe9565b005b3480156104ca57600080fd5b506104d3611126565b6040516104e09190611a24565b60405180910390f35b3480156104f557600080fd5b50610510600480360361050b91908101906118e4565b61114c565b60405161051d9190611a24565b60405180910390f35b34801561053257600080fd5b5061053b61117f565b6040516105489190611a91565b60405180910390f35b34801561055d57600080fd5b5061057860048036036105739190810190611770565b6111a5565b005b34801561058657600080fd5b506105a1600480360361059c919081019061184d565b6111e9565b6040516105ae9190611b2e565b60405180910390f35b600060405180807f737570706f727473496e74657266616365286279746573342900000000000000815250601901905060405180910390207bffffffffffffffffffffffffffffffffffffffffffffffffffffffff1916827bffffffffffffffffffffffffffffffffffffffffffffffffffffffff191614806108c1575060405180807f746f6b656e4d657461646174612875696e743235362c737472696e6729000000815250601d019050604051809103902060405180807f746f6b656e734f664f776e6572286164647265737329000000000000000000008152506016019050604051809103902060405180807f7472616e7366657246726f6d28616464726573732c616464726573732c75696e81526020017f74323536290000000000000000000000000000000000000000000000000000008152506025019050604051809103902060405180807f7472616e7366657228616464726573732c75696e7432353629000000000000008152506019019050604051809103902060405180807f617070726f766528616464726573732c75696e743235362900000000000000008152506018019050604051809103902060405180807f6f776e65724f662875696e7432353629000000000000000000000000000000008152506010019050604051809103902060405180807f62616c616e63654f6628616464726573732900000000000000000000000000008152506012019050604051809103902060405180807f746f74616c537570706c79282900000000000000000000000000000000000000815250600d019050604051809103902060405180807f73796d626f6c28290000000000000000000000000000000000000000000000008152506008019050604051809103902060405180807f6e616d6528290000000000000000000000000000000000000000000000000000815250600601905060405180910390201818181818181818187bffffffffffffffffffffffffffffffffffffffffffffffffffffffff1916827bffffffffffffffffffffffffffffffffffffffffffffffffffffffff1916145b9050919050565b600160009054906101000a900473ffffffffffffffffffffffffffffffffffffffff1681565b6040805190810160405280600581526020017f504953544c00000000000000000000000000000000000000000000000000000081525081565b610931338261132e565b151561093c57600080fd5b610946818361139a565b7f8c5be1e5ebec7d5bd14f71427d1e84f3dd0314c0f7b2291e5b200ac8c7c3b92533838360405161097993929190611a3f565b60405180910390a15050565b6000809054906101000a900473ffffffffffffffffffffffffffffffffffffffff1681565b6000600160048054905003905090565b600260149054906101000a900460ff161515156109d657600080fd5b600073ffffffffffffffffffffffffffffffffffffffff168273ffffffffffffffffffffffffffffffffffffffff1614151515610a1257600080fd5b3073ffffffffffffffffffffffffffffffffffffffff168273ffffffffffffffffffffffffffffffffffffffff1614151515610a4d57600080fd5b610a5733826113f0565b1515610a6257600080fd5b610a6c838261132e565b1515610a7757600080fd5b610a8283838361145c565b505050565b6000809054906101000a900473ffffffffffffffffffffffffffffffffffffffff1673ffffffffffffffffffffffffffffffffffffffff163373ffffffffffffffffffffffffffffffffffffffff16141515610ae257600080fd5b600073ffffffffffffffffffffffffffffffffffffffff168173ffffffffffffffffffffffffffffffffffffffff1614151515610b1e57600080fd5b806000806101000a81548173ffffffffffffffffffffffffffffffffffffffff021916908373ffffffffffffffffffffffffffffffffffffffff16021790555050565b6000809054906101000a900473ffffffffffffffffffffffffffffffffffffffff1673ffffffffffffffffffffffffffffffffffffffff163373ffffffffffffffffffffffffffffffffffffffff16141515610bbc57600080fd5b600073ffffffffffffffffffffffffffffffffffffffff168173ffffffffffffffffffffffffffffffffffffffff1614151515610bf857600080fd5b80600260006101000a81548173ffffffffffffffffffffffffffffffffffffffff021916908373ffffffffffffffffffffffffffffffffffffffff16021790555050565b6000600260146101000a81548160ff021916908315150217905550565b6000809054906101000a900473ffffffffffffffffffffffffffffffffffffffff1673ffffffffffffffffffffffffffffffffffffffff163373ffffffffffffffffffffffffffffffffffffffff16141515610cb457600080fd5b600073ffffffffffffffffffffffffffffffffffffffff168173ffffffffffffffffffffffffffffffffffffffff1614151515610cf057600080fd5b80600160006101000a81548173ffffffffffffffffffffffffffffffffffffffff021916908373ffffffffffffffffffffffffffffffffffffffff16021790555050565b8060038190555050565b600260149054906101000a900460ff1681565b60006005600083815260200190815260200160002060009054906101000a900473ffffffffffffffffffffffffffffffffffffffff169050600073ffffffffffffffffffffffffffffffffffffffff168173ffffffffffffffffffffffffffffffffffffffff1614151515610dc557600080fd5b919050565b6000600660008373ffffffffffffffffffffffffffffffffffffffff1673ffffffffffffffffffffffffffffffffffffffff168152602001908152602001600020549050919050565b60035481565b6001600260146101000a81548160ff021916908315150217905550565b60008060008060606000806000600394506000851415610e69576000806000829250819150809050975097509750610fa4565b6003604051908082528060200260200182016040528015610e995781602001602082028038833980820191505090505b509350610ea46109aa565b925060009150600190505b8281111515610f52578873ffffffffffffffffffffffffffffffffffffffff166005600083815260200190815260200160002060009054906101000a900473ffffffffffffffffffffffffffffffffffffffff1673ffffffffffffffffffffffffffffffffffffffff161415610f4557808483815181101515610f2e57fe5b906020019060200201818152505081806001019250505b8080600101915050610eaf565b836000815181101515610f6157fe5b90602001906020020151846001815181101515610f7a57fe5b90602001906020020151856002815181101515610f9357fe5b906020019060200201519750975097505b50505050509193909250565b6040805190810160405280600181526020017f500000000000000000000000000000000000000000000000000000000000000081525081565b600073ffffffffffffffffffffffffffffffffffffffff168273ffffffffffffffffffffffffffffffffffffffff161415151561105b576040517f08c379a000000000000000000000000000000000000000000000000000000000815260040161105290611aee565b60405180910390fd5b3073ffffffffffffffffffffffffffffffffffffffff168273ffffffffffffffffffffffffffffffffffffffff16141515156110cc576040517f08c379a00000000000000000000000000000000000000000000000000000000081526004016110c390611ace565b60405180910390fd5b6110d6338261132e565b1515611117576040517f08c379a000000000000000000000000000000000000000000000000000000000815260040161110e90611b0e565b60405180910390fd5b61112233838361145c565b5050565b600260009054906101000a900473ffffffffffffffffffffffffffffffffffffffff1681565b60056020528060005260406000206000915054906101000a900473ffffffffffffffffffffffffffffffffffffffff1681565b600860009054906101000a900473ffffffffffffffffffffffffffffffffffffffff1681565b80600860006101000a81548173ffffffffffffffffffffffffffffffffffffffff021916908373ffffffffffffffffffffffffffffffffffffffff16021790555050565b60006111f36115fa565b60006080604051908101604052808781526020018681526020018581526020013373ffffffffffffffffffffffffffffffffffffffff168152509150600160048390806001815401808255809150509060018203906000526020600020906004020160009091929091909150600082015181600001908051906020019061127b929190611639565b506020820151816001019080519060200190611298929190611639565b5060408201518160020190805190602001906112b5929190611639565b5060608201518160030160006101000a81548173ffffffffffffffffffffffffffffffffffffffff021916908373ffffffffffffffffffffffffffffffffffffffff16021790555050500390508063ffffffff168114151561131657600080fd5b6113226000338361145c565b80925050509392505050565b60008273ffffffffffffffffffffffffffffffffffffffff166005600084815260200190815260200160002060009054906101000a900473ffffffffffffffffffffffffffffffffffffffff1673ffffffffffffffffffffffffffffffffffffffff1614905092915050565b806007600084815260200190815260200160002060006101000a81548173ffffffffffffffffffffffffffffffffffffffff021916908373ffffffffffffffffffffffffffffffffffffffff1602179055505050565b60008273ffffffffffffffffffffffffffffffffffffffff166007600084815260200190815260200160002060009054906101000a900473ffffffffffffffffffffffffffffffffffffffff1673ffffffffffffffffffffffffffffffffffffffff1614905092915050565b600660008373ffffffffffffffffffffffffffffffffffffffff1673ffffffffffffffffffffffffffffffffffffffff16815260200190815260200160002060008154809291906001019190505550816005600083815260200190815260200160002060006101000a81548173ffffffffffffffffffffffffffffffffffffffff021916908373ffffffffffffffffffffffffffffffffffffffff160217905550600073ffffffffffffffffffffffffffffffffffffffff168373ffffffffffffffffffffffffffffffffffffffff161415156115ba57600660008473ffffffffffffffffffffffffffffffffffffffff1673ffffffffffffffffffffffffffffffffffffffff16815260200190815260200160002060008154809291906001900391905055506007600082815260200190815260200160002060006101000a81549073ffffffffffffffffffffffffffffffffffffffff02191690555b7fddf252ad1be2c89b69c2b068fc378daa952ba7f163c4a11628f55a4df523b3ef8383836040516115ed93929190611a3f565b60405180910390a1505050565b608060405190810160405280606081526020016060815260200160608152602001600073ffffffffffffffffffffffffffffffffffffffff1681525090565b828054600181600116156101000203166002900490600052602060002090601f016020900481019282601f1061167a57805160ff19168380011785556116a8565b828001600101855582156116a8579182015b828111156116a757825182559160200191906001019061168c565b5b5090506116b591906116b9565b5090565b6116db91905b808211156116d75760008160009055506001016116bf565b5090565b90565b60006116ea8235611c1a565b905092915050565b60006116fe8235611c3a565b905092915050565b600082601f830112151561171957600080fd5b813561172c61172782611bad565b611b80565b9150808252602083016020830185838301111561174857600080fd5b611753838284611c82565b50505092915050565b60006117688235611c66565b905092915050565b60006020828403121561178257600080fd5b6000611790848285016116de565b91505092915050565b6000806000606084860312156117ae57600080fd5b60006117bc868287016116de565b93505060206117cd868287016116de565b92505060406117de8682870161175c565b9150509250925092565b600080604083850312156117fb57600080fd5b6000611809858286016116de565b925050602061181a8582860161175c565b9150509250929050565b60006020828403121561183657600080fd5b6000611844848285016116f2565b91505092915050565b60008060006060848603121561186257600080fd5b600084013567ffffffffffffffff81111561187c57600080fd5b61188886828701611706565b935050602084013567ffffffffffffffff8111156118a557600080fd5b6118b186828701611706565b925050604084013567ffffffffffffffff8111156118ce57600080fd5b6118da86828701611706565b9150509250925092565b6000602082840312156118f657600080fd5b60006119048482850161175c565b91505092915050565b61191681611be4565b82525050565b61192581611c04565b82525050565b61193481611c70565b82525050565b600061194582611bd9565b808452611959816020860160208601611c91565b61196281611cc4565b602085010191505092915050565b6000600f82527f496e76616c6964206164647265737300000000000000000000000000000000006020830152604082019050919050565b6000601282527f556e6578706563746564206164647265737300000000000000000000000000006020830152604082019050919050565b6000601d82527f53656e64657220646f6573206e6f74206f776e20746869732067756e2e0000006020830152604082019050919050565b611a1e81611c10565b82525050565b6000602082019050611a39600083018461190d565b92915050565b6000606082019050611a54600083018661190d565b611a61602083018561190d565b611a6e6040830184611a15565b949350505050565b6000602082019050611a8b600083018461191c565b92915050565b6000602082019050611aa6600083018461192b565b92915050565b60006020820190508181036000830152611ac6818461193a565b905092915050565b60006020820190508181036000830152611ae781611970565b9050919050565b60006020820190508181036000830152611b07816119a7565b9050919050565b60006020820190508181036000830152611b27816119de565b9050919050565b6000602082019050611b436000830184611a15565b92915050565b6000606082019050611b5e6000830186611a15565b611b6b6020830185611a15565b611b786040830184611a15565b949350505050565b6000604051905081810181811067ffffffffffffffff82111715611ba357600080fd5b8060405250919050565b600067ffffffffffffffff821115611bc457600080fd5b601f19601f8301169050602081019050919050565b600081519050919050565b600073ffffffffffffffffffffffffffffffffffffffff82169050919050565b60008115159050919050565b6000819050919050565b600073ffffffffffffffffffffffffffffffffffffffff82169050919050565b60007fffffffff0000000000000000000000000000000000000000000000000000000082169050919050565b6000819050919050565b6000611c7b82611be4565b9050919050565b82818337600083830152505050565b60005b83811015611caf578082015181840152602081019050611c94565b83811115611cbe576000848401525b50505050565b6000601f19601f83011690509190505600a265627a7a72305820cd6d2720d54b0e15ef2cf9cb49928e22b855510262ffd8b392c18912d0bdd0586c6578706572696d656e74616cf50037",
  "source": "pragma solidity ^0.4.23;\npragma experimental ABIEncoderV2;\n\ncontract ERC721 {\n    // Required methods\n    function totalSupply() public view returns (uint256 total);\n    function balanceOf(address _owner) public view returns (uint256 balance);\n    function ownerOf(uint256 _tokenId) external view returns (address owner);\n    function approve(address _to, uint256 _tokenId) external;\n    function transfer(address _to, uint256 _tokenId) external;\n    function transferFrom(address _from, address _to, uint256 _tokenId) external;\n\n    // Events\n    event Transfer(address from, address to, uint256 tokenId);\n    event Approval(address owner, address approved, uint256 tokenId);\n\n    // ERC-165 Compatibility (https://github.com/ethereum/EIPs/issues/165)\n    function supportsInterface(bytes4 _interfaceID) external view returns (bool);\n}\n\ncontract GunAccessControl {\n    // This facet controls access control for Blocked and Loaded. There are four roles managed here:\n    //\n    //     - The CEO: The CEO can reassign other roles and change the addresses of our dependent smart\n    //         contracts. It is also the only role that can unpause the smart contract. It is initially\n    //         set to the address that created the smart contract in the GunCore constructor.\n    //\n    //     - The CFO: The CFO can withdraw funds from GunCore and its auction contracts.\n    //\n    //     - The COO\n    //\n    // It should be noted that these roles are distinct without overlap in their access abilities, the\n    // abilities listed for each role above are exhaustive. In particular, while the CEO can assign any\n    // address to any role, the CEO address itself doesn't have the ability to act in those roles. This\n    // restriction is intentional so that we aren't tempted to use the CEO address frequently out of\n    // convenience. The less we use an address, the less likely it is that we somehow compromise the\n    // account.\n\n    event ContractUpgrade(address newContract);\n\n    // The addresses of the accounts (or contracts) that can execute actions within each roles.\n    address public ceoAddress;\n    address public cfoAddress;\n    address public cooAddress;\n\n    // Keeps track whether the contract is paused. When that is true, most actions are blocked\n    bool public paused = false;\n\n    /// Access modifier for CEO-only functionality\n    modifier onlyCEO() {\n        require(msg.sender == ceoAddress);\n        _;\n    }\n\n    /// Access modifier for CFO-only functionality\n    modifier onlyCFO() {\n        require(msg.sender == cfoAddress);\n        _;\n    }\n\n    /// Access modifier for COO-only functionality\n    modifier onlyCOO() {\n        require(msg.sender == cooAddress);\n        _;\n    }\n\n    modifier onlyCLevel() {\n        require(\n            msg.sender == cooAddress ||\n            msg.sender == ceoAddress ||\n            msg.sender == cfoAddress\n        );\n        _;\n    }\n\n    /// Assigns a new address to act as the CEO. Only available to the current CEO.\n    function setCEO(address _newCEO) external onlyCEO {\n        require(_newCEO != address(0));\n\n        ceoAddress = _newCEO;\n    }\n\n    /// Assigns a new address to act as the CFO. Only available to the current CEO.\n    function setCFO(address _newCFO) external onlyCEO {\n        require(_newCFO != address(0));\n\n        cfoAddress = _newCFO;\n    }\n\n    /// Assigns a new address to act as the COO. Only available to the current CEO.\n    function setCOO(address _newCOO) external onlyCEO {\n        require(_newCOO != address(0));\n\n        cooAddress = _newCOO;\n    }\n\n    /*** Pausable functionality adapted from OpenZeppelin ***/\n\n    /// Modifier to allow actions only when the contract IS NOT paused\n    modifier whenNotPaused() {\n        require(!paused);\n        _;\n    }\n\n    /// Modifier to allow actions only when the contract IS paused\n    modifier whenPaused {\n        require(paused);\n        _;\n    }\n\n    /// Called by any \"C-level\" role to pause the contract.\n    function pause() external {\n        paused = true;\n    }\n\n    ///  Unpauses the smart contract. Can only be called by the CEO, since\n    ///  one reason we may pause the contract is when CFO or COO accounts are\n    ///  compromised.\n    function unpause() public {\n        paused = false;\n    }\n}\n\ncontract GunBase is GunAccessControl {\n    //Transfer event as defined in current draft of ERC721. Emitted every time\n    //a gun ownership is assigned.\n    event Transfer(address from, address to, uint256 tokenId);\n\n    //An approximation of currently how many seconds are in between block\n    uint256 public secondsPerBlock = 15;\n\n    //Main Gun Struct. \n    struct Gun {\n        string name;\n        string serial;\n        string manufacturer;\n        address owner;\n    }\n\n    //All guns in existence. The ID of each gun is an index to this array. Gun ID 0 is invalid.\n    Gun[] gunRecords;\n\n    //Mapping of gun's ID to address of the owner.\n    mapping(uint256 => address) public gunIndexToOwner;\n\n    //Mapping from owner address to count of tokens that address owns.\n    mapping(address => uint256) ownershipTokenCount;\n\n    //Mapping from GunIDs to an address that has been approved to call transferFrom().\n    //Each Gun can only have 1 approved address for transfer at any time.\n    mapping(uint256 => address) gunIndexToApproved;\n\n    //The address of the ClockAuction contract that handles sales of Guns. This also handles\n    //P2P sales.\n\n    //Assigns ownership of a specific Gun to a new address.\n    function _transfer(address _from, address _to, uint256 _tokenId) internal {\n        ownershipTokenCount[_to]++;\n        gunIndexToOwner[_tokenId] = _to;\n\n        if (_from != address(0)) {\n            ownershipTokenCount[_from]--;\n            delete gunIndexToApproved[_tokenId];\n        }\n\n        emit Transfer(_from, _to, _tokenId);\n    }\n\n    //Creates a new Gun Struct.\n    function createGun(string _name, string _serial, string _manufacturer) returns (uint) {\n        Gun memory _newGun = Gun({\n            name: _name,\n            serial: _serial,\n            manufacturer: _manufacturer,\n            owner: msg.sender\n        });\n\n        uint256 newGunID = gunRecords.push(_newGun) - 1;\n        require(newGunID == uint256(uint32(newGunID)));\n\n        _transfer(0, msg.sender, newGunID);\n\n        return newGunID;\n    }\n\n    function setSecondsPerBlock(uint256 secs) external {\n        secondsPerBlock = secs;\n    }\n}\n\ncontract ERC721Metadata {\n    /// @dev Given a token Id, returns a byte array that is supposed to be converted into string.\n    function getMetadata(uint256 _tokenId, string) public view returns (bytes32[4] buffer, uint256 count) {\n        if (_tokenId == 1) {\n            buffer[0] = \"Hello World! :D\";\n            count = 15;\n        } else if (_tokenId == 2) {\n            buffer[0] = \"I would definitely choose a medi\";\n            buffer[1] = \"um length string.\";\n            count = 49;\n        } else if (_tokenId == 3) {\n            buffer[0] = \"Lorem ipsum dolor sit amet, mi e\";\n            buffer[1] = \"st accumsan dapibus augue lorem,\";\n            buffer[2] = \" tristique vestibulum id, libero\";\n            buffer[3] = \" suscipit varius sapien aliquam.\";\n            count = 128;\n        }\n    }\n}\n\ncontract GunOwnership is GunBase, ERC721 {\n    //Name and symbol of the non fungible token.\n    string public constant name = \"PISTL\";\n    string public constant symbol = \"P\";\n\n    // The contract that will return gun metadata\n    ERC721Metadata public erc721Metadata;\n\n    bytes4 constant InterfaceSignature_ERC165 = bytes4(keccak256(\"supportsInterface(bytes4)\"));\n\n    bytes4 constant InterfaceSignature_ERC721 =\n        bytes4(keccak256('name()')) ^\n        bytes4(keccak256('symbol()')) ^\n        bytes4(keccak256('totalSupply()')) ^\n        bytes4(keccak256('balanceOf(address)')) ^\n        bytes4(keccak256('ownerOf(uint256)')) ^\n        bytes4(keccak256('approve(address,uint256)')) ^\n        bytes4(keccak256('transfer(address,uint256)')) ^\n        bytes4(keccak256('transferFrom(address,address,uint256)')) ^\n        bytes4(keccak256('tokensOfOwner(address)')) ^\n        bytes4(keccak256('tokenMetadata(uint256,string)'));\n\n    /// @notice Introspection interface as per ERC-165 (https://github.com/ethereum/EIPs/issues/165).\n    ///  Returns true for any standardized interfaces implemented by this contract. We implement\n    ///  ERC-165 (obviously!) and ERC-721.\n    function supportsInterface(bytes4 _interfaceID) external view returns (bool)\n    {\n        return ((_interfaceID == InterfaceSignature_ERC165) || (_interfaceID == InterfaceSignature_ERC721));\n    }\n\n    /// @dev Set the address of the sibling contract that tracks metadata.\n    ///  CEO only.\n    function setMetadataAddress(address _contractAddress) public {\n        erc721Metadata = ERC721Metadata(_contractAddress);\n    }\n\n    //Checks if given address is current owner of a particular gun.\n    function _owns(address _claimer, uint256 _tokenID) internal view returns (bool) {\n        return gunIndexToOwner[_tokenID] == _claimer;\n    }\n\n    //Checks if a given address currently has transferApproval for a specified gun.\n    function _approvedFor(address _claimer, uint256 _tokenId) internal view returns (bool) {\n        return gunIndexToApproved[_tokenId] == _claimer;\n    }\n\n    //Allows address to be approved for transferFrom().\n    function _approve(uint256 _tokenId, address _approved) internal {\n        gunIndexToApproved[_tokenId] = _approved;\n    }\n\n    // Returns the number of Guns owned by a specific address.\n    function balanceOf(address _owner) public view returns (uint256 count) {\n        return ownershipTokenCount[_owner];\n    }\n\n    // Transfers a Gun to another address.\n    function transfer(address _to, uint256 _tokenId) external {\n        // Safety check to prevent against an unexpected 0x0 default.\n        require(_to != address(0), \"Unexpected address\");\n        // Disallow transfers to this contract to prevent accidental misuse.\n        // The contract should never own any guns.\n        require(_to != address(this), \"Invalid address\");\n\n        // You can only transfer your own gun.\n        require(_owns(msg.sender, _tokenId), \"Sender does not own this gun.\");\n\n        // Reassign ownership and emit Transfer event.\n        _transfer(msg.sender, _to, _tokenId);\n    }\n\n    // Grant another address the right to transfer ownership of a specific Gun.\n    function approve(address _to, uint256 _tokenId) external {\n        // Only an owner can grant transfer approval.\n        require(_owns(msg.sender, _tokenId));\n\n        // Register the approval (replacing any previous approval).\n        _approve(_tokenId, _to);\n\n        // Emit approval event.\n        emit Approval(msg.sender, _to, _tokenId);\n    }\n\n    // Transfer a Gun owned by another address, for which the calling address\n    //  has previously been granted transfer approval by the owner.\n    function transferFrom(address _from, address _to, uint256 _tokenId) external whenNotPaused {\n        // Safety check to prevent against an unexpected 0x0 default.\n        require(_to != address(0));\n        // Disallow transfers to this contract to prevent accidental misuse.\n        // The contract should never own any guns.\n        require(_to != address(this));\n        // Check for approval and valid ownership\n        require(_approvedFor(msg.sender, _tokenId));\n        require(_owns(_from, _tokenId));\n\n        // Reassign ownership and emits Transfer event.\n        _transfer(_from, _to, _tokenId);\n    }\n\n    // Returns the total number of Guns currently in existence.\n    function totalSupply() public view returns (uint) {\n        return gunRecords.length - 1;\n    }\n\n    // Returns the address currently assigned ownership of a given Gun.\n    function ownerOf(uint256 _tokenId) external view returns (address owner) {\n        owner = gunIndexToOwner[_tokenId];\n\n        require(owner != address(0));\n    }\n\n    // Returns a list of all Gun IDs assigned to an address.\n    function tokensOfOwner(address _owner) external view returns(uint256, uint256, uint256) {\n        uint256 tokenCount = 3;\n\n        if (tokenCount == 0) {\n            // Return an empty array\n            return (0, 0, 0);\n        } else {\n            uint256[] memory result = new uint256[](3);\n            uint256 totalGuns = totalSupply();\n            uint256 resultIndex = 0;\n\n            // We count on the fact that all guns have IDs starting at 1 and increasing\n            // sequentially up to the totalGun count.\n            uint256 gunId;\n\n            for (gunId = 1; gunId <= totalGuns; gunId++) {\n                if (gunIndexToOwner[gunId] == _owner) {\n                    result[resultIndex] = gunId;\n                    resultIndex++;\n                }\n            }\n\n            return (result[0], result[1], result[2]);\n        }\n    }\n}\n\n//Blocked and Loaded main contract.\ncontract GunCore is GunOwnership {\n\n    // This is the main Blocked and Loaded contract.\n    //\n    // The core contract is broked into multiple files using inheritence, one for each major\n    // facet of functionality of PISTL. The breakdown is as follows:\n    //\n    //      - GunBase: This is where we define the most fundamental code shared throughout the core\n    //             functionality. This includes our main data storage, constants and data types, plus\n    //             internal functions for managing these items.\n    //\n    //      - GunAccessControl: This contract manages the various addresses and constraints for operations\n    //             that can be executed only by specific roles. Namely CEO, CFO and COO.\n    //\n    //      - GunOwnership: This provides the methods required for basic non-fungible token\n    //             transactions, following the draft ERC-721 spec (https://github.com/ethereum/EIPs/issues/721).\n\n    //Set in case the core contract is broken and an upgrade is required\n    address public newContractAddress;\n\n    //Creates the main Blocked and Loaded smart contract instance.\n    constructor() public {\n        // Starts paused.\n        paused = true;\n\n        // the creator of the contract is the initial CEO\n        ceoAddress = msg.sender;\n\n        // the creator of the contract is also the initial COO\n        cooAddress = msg.sender;\n\n        // start with invalid gun to prevent ownership issues.\n        createGun(\"\", \"\", \"\");\n    }\n\n    ///  Used to mark the smart contract as upgraded, in case there is a serious\n    ///  breaking bug. This method does nothing but keep track of the new contract and\n    ///  emit a message indicating that the new address is set. It's up to clients of this\n    ///  contract to update to the new contract address in that case. (This contract will\n    ///  be paused indefinitely if such an upgrade takes place.)\n    function setNewAddress(address _v2Address) external {\n        // See README.md for updgrade plan\n        newContractAddress = _v2Address;\n        emit ContractUpgrade(_v2Address);\n    }\n\n    /// Returns all the relevant information about a specific gun.\n    function getGun(uint256 _id)\n        external\n        view\n        returns (\n        string name,\n        string manufacturer,\n        string serialNumber\n    ) {\n        Gun storage _gun = gunRecords[_id];\n\n        // if this variable is 0 then it's not gestating\n        name = _gun.name;\n        manufacturer = _gun.manufacturer;\n        serialNumber = _gun.serial;\n    }\n\n\n    /// Returns all the relevant information about a specific gun.\n    function getGunRecords()\n        external\n        view\n        returns (Gun[]){ gunRecords;\n    }\n\n    ///  Override unpause so it requires all external contract addresses\n    ///  to be set before contract can be unpaused. Also, we can't have\n    ///  newContractAddress set either, because then the contract was upgraded.\n    function unpause() public {\n        require(newContractAddress == address(0));\n\n        // Actually unpause the contract.\n        super.unpause();\n    }\n}",
  "sourcePath": "/Users/kimiazargari/Desktop/final/contracts/blocked.sol",
  "compiler": {
    "name": "solc",
    "version": "0.4.24+commit.e67f0147.Emscripten.clang"
  },
  "schemaVersion": "2.0.1",
  "updatedAt": "2018-12-01T06:13:30.934Z"
}